{
  "_format": "hh-sol-artifact-1",
  "contractName": "MyEpicNFT",
  "sourceName": "contracts/MyEpicNFT.sol",
  "abi": [
    {
      "inputs": [],
      "stateMutability": "nonpayable",
      "type": "constructor"
    },
    {
      "anonymous": false,
      "inputs": [
        {
          "indexed": true,
          "internalType": "address",
          "name": "owner",
          "type": "address"
        },
        {
          "indexed": true,
          "internalType": "address",
          "name": "approved",
          "type": "address"
        },
        {
          "indexed": true,
          "internalType": "uint256",
          "name": "tokenId",
          "type": "uint256"
        }
      ],
      "name": "Approval",
      "type": "event"
    },
    {
      "anonymous": false,
      "inputs": [
        {
          "indexed": true,
          "internalType": "address",
          "name": "owner",
          "type": "address"
        },
        {
          "indexed": true,
          "internalType": "address",
          "name": "operator",
          "type": "address"
        },
        {
          "indexed": false,
          "internalType": "bool",
          "name": "approved",
          "type": "bool"
        }
      ],
      "name": "ApprovalForAll",
      "type": "event"
    },
    {
      "anonymous": false,
      "inputs": [
        {
          "indexed": false,
          "internalType": "address",
          "name": "sender",
          "type": "address"
        },
        {
          "indexed": false,
          "internalType": "uint256",
          "name": "tokenId",
          "type": "uint256"
        }
      ],
      "name": "NewEpicNFTMinted",
      "type": "event"
    },
    {
      "anonymous": false,
      "inputs": [
        {
          "indexed": true,
          "internalType": "address",
          "name": "from",
          "type": "address"
        },
        {
          "indexed": true,
          "internalType": "address",
          "name": "to",
          "type": "address"
        },
        {
          "indexed": true,
          "internalType": "uint256",
          "name": "tokenId",
          "type": "uint256"
        }
      ],
      "name": "Transfer",
      "type": "event"
    },
    {
      "inputs": [
        {
          "internalType": "address",
          "name": "to",
          "type": "address"
        },
        {
          "internalType": "uint256",
          "name": "tokenId",
          "type": "uint256"
        }
      ],
      "name": "approve",
      "outputs": [],
      "stateMutability": "nonpayable",
      "type": "function"
    },
    {
      "inputs": [
        {
          "internalType": "address",
          "name": "owner",
          "type": "address"
        }
      ],
      "name": "balanceOf",
      "outputs": [
        {
          "internalType": "uint256",
          "name": "",
          "type": "uint256"
        }
      ],
      "stateMutability": "view",
      "type": "function"
    },
    {
      "inputs": [],
      "name": "count",
      "outputs": [
        {
          "internalType": "uint256",
          "name": "",
          "type": "uint256"
        }
      ],
      "stateMutability": "view",
      "type": "function"
    },
    {
      "inputs": [
        {
          "internalType": "uint256",
          "name": "tokenId",
          "type": "uint256"
        }
      ],
      "name": "getApproved",
      "outputs": [
        {
          "internalType": "address",
          "name": "",
          "type": "address"
        }
      ],
      "stateMutability": "view",
      "type": "function"
    },
    {
      "inputs": [
        {
          "internalType": "address",
          "name": "owner",
          "type": "address"
        },
        {
          "internalType": "address",
          "name": "operator",
          "type": "address"
        }
      ],
      "name": "isApprovedForAll",
      "outputs": [
        {
          "internalType": "bool",
          "name": "",
          "type": "bool"
        }
      ],
      "stateMutability": "view",
      "type": "function"
    },
    {
      "inputs": [],
      "name": "makeAnEpicNFT",
      "outputs": [],
      "stateMutability": "nonpayable",
      "type": "function"
    },
    {
      "inputs": [],
      "name": "maxMintAmount",
      "outputs": [
        {
          "internalType": "uint256",
          "name": "",
          "type": "uint256"
        }
      ],
      "stateMutability": "view",
      "type": "function"
    },
    {
      "inputs": [],
      "name": "name",
      "outputs": [
        {
          "internalType": "string",
          "name": "",
          "type": "string"
        }
      ],
      "stateMutability": "view",
      "type": "function"
    },
    {
      "inputs": [
        {
          "internalType": "uint256",
          "name": "tokenId",
          "type": "uint256"
        }
      ],
      "name": "ownerOf",
      "outputs": [
        {
          "internalType": "address",
          "name": "",
          "type": "address"
        }
      ],
      "stateMutability": "view",
      "type": "function"
    },
    {
      "inputs": [
        {
          "internalType": "uint256",
          "name": "tokenId",
          "type": "uint256"
        }
      ],
      "name": "pickRandomColor",
      "outputs": [
        {
          "internalType": "string",
          "name": "",
          "type": "string"
        }
      ],
      "stateMutability": "view",
      "type": "function"
    },
    {
      "inputs": [
        {
          "internalType": "uint256",
          "name": "tokenId",
          "type": "uint256"
        }
      ],
      "name": "pickRandomFirstWord",
      "outputs": [
        {
          "internalType": "string",
          "name": "",
          "type": "string"
        }
      ],
      "stateMutability": "view",
      "type": "function"
    },
    {
      "inputs": [
        {
          "internalType": "uint256",
          "name": "tokenId",
          "type": "uint256"
        }
      ],
      "name": "pickRandomSecondWord",
      "outputs": [
        {
          "internalType": "string",
          "name": "",
          "type": "string"
        }
      ],
      "stateMutability": "view",
      "type": "function"
    },
    {
      "inputs": [
        {
          "internalType": "uint256",
          "name": "tokenId",
          "type": "uint256"
        }
      ],
      "name": "pickRandomThirdWord",
      "outputs": [
        {
          "internalType": "string",
          "name": "",
          "type": "string"
        }
      ],
      "stateMutability": "view",
      "type": "function"
    },
    {
      "inputs": [
        {
          "internalType": "address",
          "name": "from",
          "type": "address"
        },
        {
          "internalType": "address",
          "name": "to",
          "type": "address"
        },
        {
          "internalType": "uint256",
          "name": "tokenId",
          "type": "uint256"
        }
      ],
      "name": "safeTransferFrom",
      "outputs": [],
      "stateMutability": "nonpayable",
      "type": "function"
    },
    {
      "inputs": [
        {
          "internalType": "address",
          "name": "from",
          "type": "address"
        },
        {
          "internalType": "address",
          "name": "to",
          "type": "address"
        },
        {
          "internalType": "uint256",
          "name": "tokenId",
          "type": "uint256"
        },
        {
          "internalType": "bytes",
          "name": "data",
          "type": "bytes"
        }
      ],
      "name": "safeTransferFrom",
      "outputs": [],
      "stateMutability": "nonpayable",
      "type": "function"
    },
    {
      "inputs": [
        {
          "internalType": "address",
          "name": "operator",
          "type": "address"
        },
        {
          "internalType": "bool",
          "name": "approved",
          "type": "bool"
        }
      ],
      "name": "setApprovalForAll",
      "outputs": [],
      "stateMutability": "nonpayable",
      "type": "function"
    },
    {
      "inputs": [
        {
          "internalType": "bytes4",
          "name": "interfaceId",
          "type": "bytes4"
        }
      ],
      "name": "supportsInterface",
      "outputs": [
        {
          "internalType": "bool",
          "name": "",
          "type": "bool"
        }
      ],
      "stateMutability": "view",
      "type": "function"
    },
    {
      "inputs": [],
      "name": "symbol",
      "outputs": [
        {
          "internalType": "string",
          "name": "",
          "type": "string"
        }
      ],
      "stateMutability": "view",
      "type": "function"
    },
    {
      "inputs": [
        {
          "internalType": "uint256",
          "name": "tokenId",
          "type": "uint256"
        }
      ],
      "name": "tokenURI",
      "outputs": [
        {
          "internalType": "string",
          "name": "",
          "type": "string"
        }
      ],
      "stateMutability": "view",
      "type": "function"
    },
    {
      "inputs": [
        {
          "internalType": "address",
          "name": "from",
          "type": "address"
        },
        {
          "internalType": "address",
          "name": "to",
          "type": "address"
        },
        {
          "internalType": "uint256",
          "name": "tokenId",
          "type": "uint256"
        }
      ],
      "name": "transferFrom",
      "outputs": [],
      "stateMutability": "nonpayable",
      "type": "function"
    }
  ],
  "bytecode": "0x6080604052606460085560405180610100016040528060d381526020016200490360d39139600990805190602001906200003b92919062000be4565b50604051806080016040528060568152602001620049d660569139600a90805190602001906200006d92919062000be4565b506040518060e001604052806040518060400160405280600981526020017f46616e746173746963000000000000000000000000000000000000000000000081525081526020016040518060400160405280600481526020017f457069630000000000000000000000000000000000000000000000000000000081525081526020016040518060400160405280600881526020017f5465727269626c6500000000000000000000000000000000000000000000000081525081526020016040518060400160405280600581526020017f4372617a7900000000000000000000000000000000000000000000000000000081525081526020016040518060400160405280600481526020017f57696c640000000000000000000000000000000000000000000000000000000081525081526020016040518060400160405280600a81526020017f54657272696679696e670000000000000000000000000000000000000000000081525081526020016040518060400160405280600681526020017f53706f6f6b790000000000000000000000000000000000000000000000000000815250815250600b9060076200022692919062000c75565b506040518061012001604052806040518060400160405280600781526020017f57617272696f720000000000000000000000000000000000000000000000000081525081526020016040518060400160405280600781526020017f50616c6164696e0000000000000000000000000000000000000000000000000081525081526020016040518060400160405280600681526020017f48756e746572000000000000000000000000000000000000000000000000000081525081526020016040518060400160405280600581526020017f526f67756500000000000000000000000000000000000000000000000000000081525081526020016040518060400160405280600681526020017f507269657374000000000000000000000000000000000000000000000000000081525081526020016040518060400160405280600681526020017f5368616d616e000000000000000000000000000000000000000000000000000081525081526020016040518060400160405280600481526020017f4d6167650000000000000000000000000000000000000000000000000000000081525081526020016040518060400160405280600781526020017f5761726c6f636b0000000000000000000000000000000000000000000000000081525081526020016040518060400160405280600581526020017f4472756964000000000000000000000000000000000000000000000000000000815250815250600c9060096200045692919062000cdc565b506040518061014001604052806040518060400160405280600381526020017f4f7263000000000000000000000000000000000000000000000000000000000081525081526020016040518060400160405280600381526020017f456c66000000000000000000000000000000000000000000000000000000000081525081526020016040518060400160405280600681526020017f556e64656164000000000000000000000000000000000000000000000000000081525081526020016040518060400160405280600681526020017f54617572656e000000000000000000000000000000000000000000000000000081525081526020016040518060400160405280600581526020017f54726f6c6c00000000000000000000000000000000000000000000000000000081525081526020016040518060400160405280600681526020017f476f626c696e000000000000000000000000000000000000000000000000000081525081526020016040518060400160405280600581526020017f48756d616e00000000000000000000000000000000000000000000000000000081525081526020016040518060400160405280600581526020017f447761726600000000000000000000000000000000000000000000000000000081525081526020016040518060400160405280600581526020017f476e6f6d6500000000000000000000000000000000000000000000000000000081525081526020016040518060400160405280600681526020017f576f7267656e0000000000000000000000000000000000000000000000000000815250815250600d90600a620006c192919062000d43565b50604051806101c001604052806040518060400160405280600781526020017f233237323732610000000000000000000000000000000000000000000000000081525081526020016040518060400160405280600781526020017f236566343434340000000000000000000000000000000000000000000000000081525081526020016040518060400160405280600781526020017f236662393233630000000000000000000000000000000000000000000000000081525081526020016040518060400160405280600781526020017f236661636331350000000000000000000000000000000000000000000000000081525081526020016040518060400160405280600781526020017f236133653633350000000000000000000000000000000000000000000000000081525081526020016040518060400160405280600781526020017f233461646538300000000000000000000000000000000000000000000000000081525081526020016040518060400160405280600781526020017f233264643462660000000000000000000000000000000000000000000000000081525081526020016040518060400160405280600781526020017f233232643365650000000000000000000000000000000000000000000000000081525081526020016040518060400160405280600781526020017f233630613566610000000000000000000000000000000000000000000000000081525081526020016040518060400160405280600781526020017f233831386366380000000000000000000000000000000000000000000000000081525081526020016040518060400160405280600781526020017f236330383466630000000000000000000000000000000000000000000000000081525081526020016040518060400160405280600781526020017f236538373966390000000000000000000000000000000000000000000000000081525081526020016040518060400160405280600781526020017f236634373262360000000000000000000000000000000000000000000000000081525081526020016040518060400160405280600781526020017f2366343366356500000000000000000000000000000000000000000000000000815250815250600e90600e62000a1892919062000daa565b5034801562000a2657600080fd5b506040518060400160405280600981526020017f5371756172654e465400000000000000000000000000000000000000000000008152506040518060400160405280600681526020017f5351554152450000000000000000000000000000000000000000000000000000815250816000908051906020019062000aab92919062000be4565b50806001908051906020019062000ac492919062000be4565b50505062000b126040518060400160405280601781526020017f54686973206973206d79206e667420636f6e747261637400000000000000000081525062000b1860201b6200122d1760201c565b62000fcb565b62000bb88160405160240162000b2f919062000edf565b6040516020818303038152906040527f41304fac000000000000000000000000000000000000000000000000000000007bffffffffffffffffffffffffffffffffffffffffffffffffffffffff19166020820180517bffffffffffffffffffffffffffffffffffffffffffffffffffffffff838183161783525050505062000bbb60201b60201c565b50565b60008151905060006a636f6e736f6c652e6c6f679050602083016000808483855afa5050505050565b82805462000bf29062000f55565b90600052602060002090601f01602090048101928262000c16576000855562000c62565b82601f1062000c3157805160ff191683800117855562000c62565b8280016001018555821562000c62579182015b8281111562000c6157825182559160200191906001019062000c44565b5b50905062000c71919062000e11565b5090565b82805482825590600052602060002090810192821562000cc9579160200282015b8281111562000cc857825182908051906020019062000cb792919062000be4565b509160200191906001019062000c96565b5b50905062000cd8919062000e30565b5090565b82805482825590600052602060002090810192821562000d30579160200282015b8281111562000d2f57825182908051906020019062000d1e92919062000be4565b509160200191906001019062000cfd565b5b50905062000d3f919062000e30565b5090565b82805482825590600052602060002090810192821562000d97579160200282015b8281111562000d9657825182908051906020019062000d8592919062000be4565b509160200191906001019062000d64565b5b50905062000da6919062000e30565b5090565b82805482825590600052602060002090810192821562000dfe579160200282015b8281111562000dfd57825182908051906020019062000dec92919062000be4565b509160200191906001019062000dcb565b5b50905062000e0d919062000e30565b5090565b5b8082111562000e2c57600081600090555060010162000e12565b5090565b5b8082111562000e54576000818162000e4a919062000e58565b5060010162000e31565b5090565b50805462000e669062000f55565b6000825580601f1062000e7a575062000e9b565b601f01602090049060005260206000209081019062000e9a919062000e11565b5b50565b600062000eab8262000f03565b62000eb7818562000f0e565b935062000ec981856020860162000f1f565b62000ed48162000fba565b840191505092915050565b6000602082019050818103600083015262000efb818462000e9e565b905092915050565b600081519050919050565b600082825260208201905092915050565b60005b8381101562000f3f57808201518184015260208101905062000f22565b8381111562000f4f576000848401525b50505050565b6000600282049050600182168062000f6e57607f821691505b6020821081141562000f855762000f8462000f8b565b5b50919050565b7f4e487b7100000000000000000000000000000000000000000000000000000000600052602260045260246000fd5b6000601f19601f8301169050919050565b6139288062000fdb6000396000f3fe608060405234801561001057600080fd5b506004361061012c5760003560e01c80636352211e116100ad578063b88d4fde11610071578063b88d4fde14610369578063c575757a14610385578063c87b56dd146103b5578063de9d132f146103e5578063e985e9c5146103ef5761012c565b80636352211e1461029f57806370a08231146102cf57806395d89b41146102ff578063a22cb4651461031d578063b187301f146103395761012c565b8063239c70ae116100f4578063239c70ae146101e957806323b872dd146102075780632de38d681461022357806342842e0e14610253578063514dc8c61461026f5761012c565b806301ffc9a71461013157806306661abd1461016157806306fdde031461017f578063081812fc1461019d578063095ea7b3146101cd575b600080fd5b61014b6004803603810190610146919061261c565b61041f565b6040516101589190612cf9565b60405180910390f35b610169610501565b6040516101769190612ef4565b60405180910390f35b610187610512565b6040516101949190612d14565b60405180910390f35b6101b760048036038101906101b2919061266e565b6105a4565b6040516101c49190612c69565b60405180910390f35b6101e760048036038101906101e291906125e0565b6105ea565b005b6101f1610702565b6040516101fe9190612ef4565b60405180910390f35b610221600480360381019061021c91906124da565b610708565b005b61023d6004803603810190610238919061266e565b610768565b60405161024a9190612d14565b60405180910390f35b61026d600480360381019061026891906124da565b610886565b005b6102896004803603810190610284919061266e565b6108a6565b6040516102969190612d14565b60405180910390f35b6102b960048036038101906102b4919061266e565b6109c4565b6040516102c69190612c69565b60405180910390f35b6102e960048036038101906102e49190612475565b610a76565b6040516102f69190612ef4565b60405180910390f35b610307610b2e565b6040516103149190612d14565b60405180910390f35b610337600480360381019061033291906125a4565b610bc0565b005b610353600480360381019061034e919061266e565b610bd6565b6040516103609190612d14565b60405180910390f35b610383600480360381019061037e9190612529565b610cf4565b005b61039f600480360381019061039a919061266e565b610d56565b6040516103ac9190612d14565b60405180910390f35b6103cf60048036038101906103ca919061266e565b610e74565b6040516103dc9190612d14565b60405180910390f35b6103ed610f87565b005b6104096004803603810190610404919061249e565b611199565b6040516104169190612cf9565b60405180910390f35b60007f80ac58cd000000000000000000000000000000000000000000000000000000007bffffffffffffffffffffffffffffffffffffffffffffffffffffffff1916827bffffffffffffffffffffffffffffffffffffffffffffffffffffffff191614806104ea57507f5b5e139f000000000000000000000000000000000000000000000000000000007bffffffffffffffffffffffffffffffffffffffffffffffffffffffff1916827bffffffffffffffffffffffffffffffffffffffffffffffffffffffff1916145b806104fa57506104f9826112c6565b5b9050919050565b600061050d6007611330565b905090565b60606000805461052190613188565b80601f016020809104026020016040519081016040528092919081815260200182805461054d90613188565b801561059a5780601f1061056f5761010080835404028352916020019161059a565b820191906000526020600020905b81548152906001019060200180831161057d57829003601f168201915b5050505050905090565b60006105af8261133e565b6004600083815260200190815260200160002060009054906101000a900473ffffffffffffffffffffffffffffffffffffffff169050919050565b60006105f5826109c4565b90508073ffffffffffffffffffffffffffffffffffffffff168373ffffffffffffffffffffffffffffffffffffffff161415610666576040517f08c379a000000000000000000000000000000000000000000000000000000000815260040161065d90612eb4565b60405180910390fd5b8073ffffffffffffffffffffffffffffffffffffffff16610685611389565b73ffffffffffffffffffffffffffffffffffffffff1614806106b457506106b3816106ae611389565b611199565b5b6106f3576040517f08c379a00000000000000000000000000000000000000000000000000000000081526004016106ea90612e54565b60405180910390fd5b6106fd8383611391565b505050565b60085481565b610719610713611389565b8261144a565b610758576040517f08c379a000000000000000000000000000000000000000000000000000000000815260040161074f90612ed4565b60405180910390fd5b6107638383836114df565b505050565b6060600061079c61077884611746565b6040516020016107889190612c03565b6040516020818303038152906040526118f3565b9050600b80549050816107af9190613234565b9050600b81815481106107eb577f4e487b7100000000000000000000000000000000000000000000000000000000600052603260045260246000fd5b90600052602060002001805461080090613188565b80601f016020809104026020016040519081016040528092919081815260200182805461082c90613188565b80156108795780601f1061084e57610100808354040283529160200191610879565b820191906000526020600020905b81548152906001019060200180831161085c57829003601f168201915b5050505050915050919050565b6108a183838360405180602001604052806000815250610cf4565b505050565b606060006108da6108b684611746565b6040516020016108c69190612c47565b6040516020818303038152906040526118f3565b9050600e80549050816108ed9190613234565b9050600e8181548110610929577f4e487b7100000000000000000000000000000000000000000000000000000000600052603260045260246000fd5b90600052602060002001805461093e90613188565b80601f016020809104026020016040519081016040528092919081815260200182805461096a90613188565b80156109b75780601f1061098c576101008083540402835291602001916109b7565b820191906000526020600020905b81548152906001019060200180831161099a57829003601f168201915b5050505050915050919050565b6000806002600084815260200190815260200160002060009054906101000a900473ffffffffffffffffffffffffffffffffffffffff169050600073ffffffffffffffffffffffffffffffffffffffff168173ffffffffffffffffffffffffffffffffffffffff161415610a6d576040517f08c379a0000000000000000000000000000000000000000000000000000000008152600401610a6490612e94565b60405180910390fd5b80915050919050565b60008073ffffffffffffffffffffffffffffffffffffffff168273ffffffffffffffffffffffffffffffffffffffff161415610ae7576040517f08c379a0000000000000000000000000000000000000000000000000000000008152600401610ade90612e14565b60405180910390fd5b600360008373ffffffffffffffffffffffffffffffffffffffff1673ffffffffffffffffffffffffffffffffffffffff168152602001908152602001600020549050919050565b606060018054610b3d90613188565b80601f0160208091040260200160405190810160405280929190818152602001828054610b6990613188565b8015610bb65780601f10610b8b57610100808354040283529160200191610bb6565b820191906000526020600020905b815481529060010190602001808311610b9957829003601f168201915b5050505050905090565b610bd2610bcb611389565b8383611926565b5050565b60606000610c0a610be684611746565b604051602001610bf69190612b9c565b6040516020818303038152906040526118f3565b9050600c8054905081610c1d9190613234565b9050600c8181548110610c59577f4e487b7100000000000000000000000000000000000000000000000000000000600052603260045260246000fd5b906000526020600020018054610c6e90613188565b80601f0160208091040260200160405190810160405280929190818152602001828054610c9a90613188565b8015610ce75780601f10610cbc57610100808354040283529160200191610ce7565b820191906000526020600020905b815481529060010190602001808311610cca57829003601f168201915b5050505050915050919050565b610d05610cff611389565b8361144a565b610d44576040517f08c379a0000000000000000000000000000000000000000000000000000000008152600401610d3b90612ed4565b60405180910390fd5b610d5084848484611a93565b50505050565b60606000610d8a610d6684611746565b604051602001610d769190612b7a565b6040516020818303038152906040526118f3565b9050600d8054905081610d9d9190613234565b9050600d8181548110610dd9577f4e487b7100000000000000000000000000000000000000000000000000000000600052603260045260246000fd5b906000526020600020018054610dee90613188565b80601f0160208091040260200160405190810160405280929190818152602001828054610e1a90613188565b8015610e675780601f10610e3c57610100808354040283529160200191610e67565b820191906000526020600020905b815481529060010190602001808311610e4a57829003601f168201915b5050505050915050919050565b6060610e7f8261133e565b6000600660008481526020019081526020016000208054610e9f90613188565b80601f0160208091040260200160405190810160405280929190818152602001828054610ecb90613188565b8015610f185780601f10610eed57610100808354040283529160200191610f18565b820191906000526020600020905b815481529060010190602001808311610efb57829003601f168201915b505050505090506000610f29611aef565b9050600081511415610f3f578192505050610f82565b600082511115610f74578082604051602001610f5c929190612adc565b60405160208183030381529060405292505050610f82565b610f7d84611b06565b925050505b919050565b600854610f946007611330565b1115610f9f57600080fd5b6000610fab6007611330565b90506000610fb882610768565b90506000610fc583610bd6565b90506000610fd284610d56565b90506000838383604051602001610feb93929190612b00565b60405160208183030381529060405290506000611007866108a6565b90506000600982600a856040516020016110249493929190612b31565b604051602081830303815290604052905060006110698461104484611b6e565b604051602001611055929190612bbe565b604051602081830303815290604052611b6e565b905060008160405160200161107e9190612c25565b60405160208183030381529060405290506110cd6040518060400160405280601581526020017f0a2d2d2d2d2d2d2d2d2d2d2d2d2d2d2d2d2d2d2d2d000000000000000000000081525061122d565b6110d68161122d565b6111146040518060400160405280601581526020017f2d2d2d2d2d2d2d2d2d2d2d2d2d2d2d2d2d2d2d2d0a000000000000000000000081525061122d565b61111e338a611d2c565b6111288982611d4a565b6111326007611dbe565b61115560405180606001604052806025815260200161388e602591398a33611dd4565b7febb98688741ffa4c7589bf325de30cf7becb63de567842e1ccdb6cb949fdc82c338a604051611186929190612cd0565b60405180910390a1505050505050505050565b6000600560008473ffffffffffffffffffffffffffffffffffffffff1673ffffffffffffffffffffffffffffffffffffffff16815260200190815260200160002060008373ffffffffffffffffffffffffffffffffffffffff1673ffffffffffffffffffffffffffffffffffffffff16815260200190815260200160002060009054906101000a900460ff16905092915050565b6112c3816040516024016112419190612d14565b6040516020818303038152906040527f41304fac000000000000000000000000000000000000000000000000000000007bffffffffffffffffffffffffffffffffffffffffffffffffffffffff19166020820180517bffffffffffffffffffffffffffffffffffffffffffffffffffffffff8381831617835250505050611e73565b50565b60007f01ffc9a7000000000000000000000000000000000000000000000000000000007bffffffffffffffffffffffffffffffffffffffffffffffffffffffff1916827bffffffffffffffffffffffffffffffffffffffffffffffffffffffff1916149050919050565b600081600001549050919050565b61134781611e9c565b611386576040517f08c379a000000000000000000000000000000000000000000000000000000000815260040161137d90612e94565b60405180910390fd5b50565b600033905090565b816004600083815260200190815260200160002060006101000a81548173ffffffffffffffffffffffffffffffffffffffff021916908373ffffffffffffffffffffffffffffffffffffffff160217905550808273ffffffffffffffffffffffffffffffffffffffff16611404836109c4565b73ffffffffffffffffffffffffffffffffffffffff167f8c5be1e5ebec7d5bd14f71427d1e84f3dd0314c0f7b2291e5b200ac8c7c3b92560405160405180910390a45050565b600080611456836109c4565b90508073ffffffffffffffffffffffffffffffffffffffff168473ffffffffffffffffffffffffffffffffffffffff16148061149857506114978185611199565b5b806114d657508373ffffffffffffffffffffffffffffffffffffffff166114be846105a4565b73ffffffffffffffffffffffffffffffffffffffff16145b91505092915050565b8273ffffffffffffffffffffffffffffffffffffffff166114ff826109c4565b73ffffffffffffffffffffffffffffffffffffffff1614611555576040517f08c379a000000000000000000000000000000000000000000000000000000000815260040161154c90612d94565b60405180910390fd5b600073ffffffffffffffffffffffffffffffffffffffff168273ffffffffffffffffffffffffffffffffffffffff1614156115c5576040517f08c379a00000000000000000000000000000000000000000000000000000000081526004016115bc90612dd4565b60405180910390fd5b6115d0838383611f08565b6115db600082611391565b6001600360008573ffffffffffffffffffffffffffffffffffffffff1673ffffffffffffffffffffffffffffffffffffffff168152602001908152602001600020600082825461162b919061309e565b925050819055506001600360008473ffffffffffffffffffffffffffffffffffffffff1673ffffffffffffffffffffffffffffffffffffffff16815260200190815260200160002060008282546116829190612fbd565b92505081905550816002600083815260200190815260200160002060006101000a81548173ffffffffffffffffffffffffffffffffffffffff021916908373ffffffffffffffffffffffffffffffffffffffff160217905550808273ffffffffffffffffffffffffffffffffffffffff168473ffffffffffffffffffffffffffffffffffffffff167fddf252ad1be2c89b69c2b068fc378daa952ba7f163c4a11628f55a4df523b3ef60405160405180910390a4611741838383611f0d565b505050565b6060600082141561178e576040518060400160405280600181526020017f300000000000000000000000000000000000000000000000000000000000000081525090506118ee565b600082905060005b600082146117c05780806117a9906131eb565b915050600a826117b99190613013565b9150611796565b60008167ffffffffffffffff811115611802577f4e487b7100000000000000000000000000000000000000000000000000000000600052604160045260246000fd5b6040519080825280601f01601f1916602001820160405280156118345781602001600182028036833780820191505090505b5090505b600085146118e75760018261184d919061309e565b9150600a8561185c9190613234565b60306118689190612fbd565b60f81b8183815181106118a4577f4e487b7100000000000000000000000000000000000000000000000000000000600052603260045260246000fd5b60200101907effffffffffffffffffffffffffffffffffffffffffffffffffffffffffffff1916908160001a905350600a856118e09190613013565b9450611838565b8093505050505b919050565b6000816040516020016119069190612ac5565b6040516020818303038152906040528051906020012060001c9050919050565b8173ffffffffffffffffffffffffffffffffffffffff168373ffffffffffffffffffffffffffffffffffffffff161415611995576040517f08c379a000000000000000000000000000000000000000000000000000000000815260040161198c90612df4565b60405180910390fd5b80600560008573ffffffffffffffffffffffffffffffffffffffff1673ffffffffffffffffffffffffffffffffffffffff16815260200190815260200160002060008473ffffffffffffffffffffffffffffffffffffffff1673ffffffffffffffffffffffffffffffffffffffff16815260200190815260200160002060006101000a81548160ff0219169083151502179055508173ffffffffffffffffffffffffffffffffffffffff168373ffffffffffffffffffffffffffffffffffffffff167f17307eab39ab6107e8899845ad3d59bd9653f200f220920489ca2b5937696c3183604051611a869190612cf9565b60405180910390a3505050565b611a9e8484846114df565b611aaa84848484611f12565b611ae9576040517f08c379a0000000000000000000000000000000000000000000000000000000008152600401611ae090612d74565b60405180910390fd5b50505050565b606060405180602001604052806000815250905090565b6060611b118261133e565b6000611b1b611aef565b90506000815111611b3b5760405180602001604052806000815250611b66565b80611b4584611746565b604051602001611b56929190612adc565b6040516020818303038152906040525b915050919050565b60606000825190506000811415611b975760405180602001604052806000815250915050611d27565b60006003600283611ba89190612fbd565b611bb29190613013565b6004611bbe9190613044565b90506000602082611bcf9190612fbd565b67ffffffffffffffff811115611c0e577f4e487b7100000000000000000000000000000000000000000000000000000000600052604160045260246000fd5b6040519080825280601f01601f191660200182016040528015611c405781602001600182028036833780820191505090505b50905060006040518060600160405280604081526020016138b3604091399050600181016020830160005b86811015611ce45760038101905062ffffff818a015116603f8160121c168401518060081b905060ff603f83600c1c1686015116810190508060081b905060ff603f8360061c1686015116810190508060081b905060ff603f831686015116810190508060e01b90508084526004840193505050611c6b565b506003860660018114611cfe5760028114611d0e57611d19565b613d3d60f01b6002830352611d19565b603d60f81b60018303525b508484525050819450505050505b919050565b611d468282604051806020016040528060008152506120a9565b5050565b611d5382611e9c565b611d92576040517f08c379a0000000000000000000000000000000000000000000000000000000008152600401611d8990612e34565b60405180910390fd5b80600660008481526020019081526020016000209080519060200190611db9929190612301565b505050565b6001816000016000828254019250508190555050565b611e6e838383604051602401611dec93929190612d36565b6040516020818303038152906040527fe3849f79000000000000000000000000000000000000000000000000000000007bffffffffffffffffffffffffffffffffffffffffffffffffffffffff19166020820180517bffffffffffffffffffffffffffffffffffffffffffffffffffffffff8381831617835250505050611e73565b505050565b60008151905060006a636f6e736f6c652e6c6f679050602083016000808483855afa5050505050565b60008073ffffffffffffffffffffffffffffffffffffffff166002600084815260200190815260200160002060009054906101000a900473ffffffffffffffffffffffffffffffffffffffff1673ffffffffffffffffffffffffffffffffffffffff1614159050919050565b505050565b505050565b6000611f338473ffffffffffffffffffffffffffffffffffffffff16612104565b1561209c578373ffffffffffffffffffffffffffffffffffffffff1663150b7a02611f5c611389565b8786866040518563ffffffff1660e01b8152600401611f7e9493929190612c84565b602060405180830381600087803b158015611f9857600080fd5b505af1925050508015611fc957506040513d601f19601f82011682018060405250810190611fc69190612645565b60015b61204c573d8060008114611ff9576040519150601f19603f3d011682016040523d82523d6000602084013e611ffe565b606091505b50600081511415612044576040517f08c379a000000000000000000000000000000000000000000000000000000000815260040161203b90612d74565b60405180910390fd5b805181602001fd5b63150b7a0260e01b7bffffffffffffffffffffffffffffffffffffffffffffffffffffffff1916817bffffffffffffffffffffffffffffffffffffffffffffffffffffffff1916149150506120a1565b600190505b949350505050565b6120b38383612127565b6120c06000848484611f12565b6120ff576040517f08c379a00000000000000000000000000000000000000000000000000000000081526004016120f690612d74565b60405180910390fd5b505050565b6000808273ffffffffffffffffffffffffffffffffffffffff163b119050919050565b600073ffffffffffffffffffffffffffffffffffffffff168273ffffffffffffffffffffffffffffffffffffffff161415612197576040517f08c379a000000000000000000000000000000000000000000000000000000000815260040161218e90612e74565b60405180910390fd5b6121a081611e9c565b156121e0576040517f08c379a00000000000000000000000000000000000000000000000000000000081526004016121d790612db4565b60405180910390fd5b6121ec60008383611f08565b6001600360008473ffffffffffffffffffffffffffffffffffffffff1673ffffffffffffffffffffffffffffffffffffffff168152602001908152602001600020600082825461223c9190612fbd565b92505081905550816002600083815260200190815260200160002060006101000a81548173ffffffffffffffffffffffffffffffffffffffff021916908373ffffffffffffffffffffffffffffffffffffffff160217905550808273ffffffffffffffffffffffffffffffffffffffff16600073ffffffffffffffffffffffffffffffffffffffff167fddf252ad1be2c89b69c2b068fc378daa952ba7f163c4a11628f55a4df523b3ef60405160405180910390a46122fd60008383611f0d565b5050565b82805461230d90613188565b90600052602060002090601f01602090048101928261232f5760008555612376565b82601f1061234857805160ff1916838001178555612376565b82800160010185558215612376579182015b8281111561237557825182559160200191906001019061235a565b5b5090506123839190612387565b5090565b5b808211156123a0576000816000905550600101612388565b5090565b60006123b76123b284612f34565b612f0f565b9050828152602081018484840111156123cf57600080fd5b6123da848285613146565b509392505050565b6000813590506123f181613831565b92915050565b60008135905061240681613848565b92915050565b60008135905061241b8161385f565b92915050565b6000815190506124308161385f565b92915050565b600082601f83011261244757600080fd5b81356124578482602086016123a4565b91505092915050565b60008135905061246f81613876565b92915050565b60006020828403121561248757600080fd5b6000612495848285016123e2565b91505092915050565b600080604083850312156124b157600080fd5b60006124bf858286016123e2565b92505060206124d0858286016123e2565b9150509250929050565b6000806000606084860312156124ef57600080fd5b60006124fd868287016123e2565b935050602061250e868287016123e2565b925050604061251f86828701612460565b9150509250925092565b6000806000806080858703121561253f57600080fd5b600061254d878288016123e2565b945050602061255e878288016123e2565b935050604061256f87828801612460565b925050606085013567ffffffffffffffff81111561258c57600080fd5b61259887828801612436565b91505092959194509250565b600080604083850312156125b757600080fd5b60006125c5858286016123e2565b92505060206125d6858286016123f7565b9150509250929050565b600080604083850312156125f357600080fd5b6000612601858286016123e2565b925050602061261285828601612460565b9150509250929050565b60006020828403121561262e57600080fd5b600061263c8482850161240c565b91505092915050565b60006020828403121561265757600080fd5b600061266584828501612421565b91505092915050565b60006020828403121561268057600080fd5b600061268e84828501612460565b91505092915050565b6126a0816130d2565b82525050565b6126af816130e4565b82525050565b60006126c082612f7a565b6126ca8185612f90565b93506126da818560208601613155565b6126e381613321565b840191505092915050565b60006126f982612f85565b6127038185612fa1565b9350612713818560208601613155565b61271c81613321565b840191505092915050565b600061273282612f85565b61273c8185612fb2565b935061274c818560208601613155565b80840191505092915050565b6000815461276581613188565b61276f8186612fb2565b9450600182166000811461278a576001811461279b576127ce565b60ff198316865281860193506127ce565b6127a485612f65565b60005b838110156127c6578154818901526001820191506020810190506127a7565b838801955050505b50505092915050565b60006127e4603283612fa1565b91506127ef82613332565b604082019050919050565b6000612807602583612fa1565b915061281282613381565b604082019050919050565b600061282a601c83612fa1565b9150612835826133d0565b602082019050919050565b600061284d600a83612fb2565b9150612858826133f9565b600a82019050919050565b6000612870602483612fa1565b915061287b82613422565b604082019050919050565b6000612893601983612fa1565b915061289e82613471565b602082019050919050565b60006128b6606383612fb2565b91506128c18261349a565b606382019050919050565b60006128d9600b83612fb2565b91506128e482613535565b600b82019050919050565b60006128fc600d83612fb2565b91506129078261355e565b600d82019050919050565b600061291f602983612fa1565b915061292a82613587565b604082019050919050565b6000612942602e83612fa1565b915061294d826135d6565b604082019050919050565b6000612965600283612fb2565b915061297082613625565b600282019050919050565b6000612988603e83612fa1565b91506129938261364e565b604082019050919050565b60006129ab602083612fa1565b91506129b68261369d565b602082019050919050565b60006129ce600a83612fb2565b91506129d9826136c6565b600a82019050919050565b60006129f1601883612fa1565b91506129fc826136ef565b602082019050919050565b6000612a14602183612fa1565b9150612a1f82613718565b604082019050919050565b6000612a37600a83612fb2565b9150612a4282613767565b600a82019050919050565b6000612a5a601d83612fb2565b9150612a6582613790565b601d82019050919050565b6000612a7d600583612fb2565b9150612a88826137b9565b600582019050919050565b6000612aa0602e83612fa1565b9150612aab826137e2565b604082019050919050565b612abf8161313c565b82525050565b6000612ad18284612727565b915081905092915050565b6000612ae88285612727565b9150612af48284612727565b91508190509392505050565b6000612b0c8286612727565b9150612b188285612727565b9150612b248284612727565b9150819050949350505050565b6000612b3d8287612758565b9150612b498286612727565b9150612b558285612758565b9150612b618284612727565b9150612b6c826128ef565b915081905095945050505050565b6000612b8582612840565b9150612b918284612727565b915081905092915050565b6000612ba7826128cc565b9150612bb38284612727565b915081905092915050565b6000612bc9826129c1565b9150612bd58285612727565b9150612be0826128a9565b9150612bec8284612727565b9150612bf782612958565b91508190509392505050565b6000612c0e82612a2a565b9150612c1a8284612727565b915081905092915050565b6000612c3082612a4d565b9150612c3c8284612727565b915081905092915050565b6000612c5282612a70565b9150612c5e8284612727565b915081905092915050565b6000602082019050612c7e6000830184612697565b92915050565b6000608082019050612c996000830187612697565b612ca66020830186612697565b612cb36040830185612ab6565b8181036060830152612cc581846126b5565b905095945050505050565b6000604082019050612ce56000830185612697565b612cf26020830184612ab6565b9392505050565b6000602082019050612d0e60008301846126a6565b92915050565b60006020820190508181036000830152612d2e81846126ee565b905092915050565b60006060820190508181036000830152612d5081866126ee565b9050612d5f6020830185612ab6565b612d6c6040830184612697565b949350505050565b60006020820190508181036000830152612d8d816127d7565b9050919050565b60006020820190508181036000830152612dad816127fa565b9050919050565b60006020820190508181036000830152612dcd8161281d565b9050919050565b60006020820190508181036000830152612ded81612863565b9050919050565b60006020820190508181036000830152612e0d81612886565b9050919050565b60006020820190508181036000830152612e2d81612912565b9050919050565b60006020820190508181036000830152612e4d81612935565b9050919050565b60006020820190508181036000830152612e6d8161297b565b9050919050565b60006020820190508181036000830152612e8d8161299e565b9050919050565b60006020820190508181036000830152612ead816129e4565b9050919050565b60006020820190508181036000830152612ecd81612a07565b9050919050565b60006020820190508181036000830152612eed81612a93565b9050919050565b6000602082019050612f096000830184612ab6565b92915050565b6000612f19612f2a565b9050612f2582826131ba565b919050565b6000604051905090565b600067ffffffffffffffff821115612f4f57612f4e6132f2565b5b612f5882613321565b9050602081019050919050565b60008190508160005260206000209050919050565b600081519050919050565b600081519050919050565b600082825260208201905092915050565b600082825260208201905092915050565b600081905092915050565b6000612fc88261313c565b9150612fd38361313c565b9250827fffffffffffffffffffffffffffffffffffffffffffffffffffffffffffffffff0382111561300857613007613265565b5b828201905092915050565b600061301e8261313c565b91506130298361313c565b92508261303957613038613294565b5b828204905092915050565b600061304f8261313c565b915061305a8361313c565b9250817fffffffffffffffffffffffffffffffffffffffffffffffffffffffffffffffff048311821515161561309357613092613265565b5b828202905092915050565b60006130a98261313c565b91506130b48361313c565b9250828210156130c7576130c6613265565b5b828203905092915050565b60006130dd8261311c565b9050919050565b60008115159050919050565b60007fffffffff0000000000000000000000000000000000000000000000000000000082169050919050565b600073ffffffffffffffffffffffffffffffffffffffff82169050919050565b6000819050919050565b82818337600083830152505050565b60005b83811015613173578082015181840152602081019050613158565b83811115613182576000848401525b50505050565b600060028204905060018216806131a057607f821691505b602082108114156131b4576131b36132c3565b5b50919050565b6131c382613321565b810181811067ffffffffffffffff821117156131e2576131e16132f2565b5b80604052505050565b60006131f68261313c565b91507fffffffffffffffffffffffffffffffffffffffffffffffffffffffffffffffff82141561322957613228613265565b5b600182019050919050565b600061323f8261313c565b915061324a8361313c565b92508261325a57613259613294565b5b828206905092915050565b7f4e487b7100000000000000000000000000000000000000000000000000000000600052601160045260246000fd5b7f4e487b7100000000000000000000000000000000000000000000000000000000600052601260045260246000fd5b7f4e487b7100000000000000000000000000000000000000000000000000000000600052602260045260246000fd5b7f4e487b7100000000000000000000000000000000000000000000000000000000600052604160045260246000fd5b6000601f19601f8301169050919050565b7f4552433732313a207472616e7366657220746f206e6f6e20455243373231526560008201527f63656976657220696d706c656d656e7465720000000000000000000000000000602082015250565b7f4552433732313a207472616e736665722066726f6d20696e636f72726563742060008201527f6f776e6572000000000000000000000000000000000000000000000000000000602082015250565b7f4552433732313a20746f6b656e20616c7265616479206d696e74656400000000600082015250565b7f54484952445f574f524400000000000000000000000000000000000000000000600082015250565b7f4552433732313a207472616e7366657220746f20746865207a65726f2061646460008201527f7265737300000000000000000000000000000000000000000000000000000000602082015250565b7f4552433732313a20617070726f766520746f2063616c6c657200000000000000600082015250565b7f222c20226465736372697074696f6e223a20224120686967686c79206163636c60008201527f61696d656420636f6c6c656374696f6e206f6620737175617265732e222c202260208201527f696d616765223a2022646174613a696d6167652f7376672b786d6c3b6261736560408201527f36342c0000000000000000000000000000000000000000000000000000000000606082015250565b7f5345434f4e445f574f5244000000000000000000000000000000000000000000600082015250565b7f3c2f746578743e3c2f7376673e00000000000000000000000000000000000000600082015250565b7f4552433732313a2061646472657373207a65726f206973206e6f74206120766160008201527f6c6964206f776e65720000000000000000000000000000000000000000000000602082015250565b7f45524337323155524953746f726167653a2055524920736574206f66206e6f6e60008201527f6578697374656e7420746f6b656e000000000000000000000000000000000000602082015250565b7f227d000000000000000000000000000000000000000000000000000000000000600082015250565b7f4552433732313a20617070726f76652063616c6c6572206973206e6f7420746f60008201527f6b656e206f776e6572206e6f7220617070726f76656420666f7220616c6c0000602082015250565b7f4552433732313a206d696e7420746f20746865207a65726f2061646472657373600082015250565b7f7b226e616d65223a202200000000000000000000000000000000000000000000600082015250565b7f4552433732313a20696e76616c696420746f6b656e2049440000000000000000600082015250565b7f4552433732313a20617070726f76616c20746f2063757272656e74206f776e6560008201527f7200000000000000000000000000000000000000000000000000000000000000602082015250565b7f46495253545f574f524400000000000000000000000000000000000000000000600082015250565b7f646174613a6170706c69636174696f6e2f6a736f6e3b6261736536342c000000600082015250565b7f434f4c4f52000000000000000000000000000000000000000000000000000000600082015250565b7f4552433732313a2063616c6c6572206973206e6f7420746f6b656e206f776e6560008201527f72206e6f7220617070726f766564000000000000000000000000000000000000602082015250565b61383a816130d2565b811461384557600080fd5b50565b613851816130e4565b811461385c57600080fd5b50565b613868816130f0565b811461387357600080fd5b50565b61387f8161313c565b811461388a57600080fd5b5056fe416e204e465420772f20494420257320686173206265656e206d696e74656420746f2025734142434445464748494a4b4c4d4e4f505152535455565758595a6162636465666768696a6b6c6d6e6f707172737475767778797a303132333435363738392b2fa2646970667358221220eee5744094f31b29cdd4256510d4e90095725a730ab4b5c322bffa6d5a2d151664736f6c634300080100333c73766720786d6c6e733d27687474703a2f2f7777772e77332e6f72672f323030302f73766727207072657365727665417370656374526174696f3d27784d696e594d696e206d656574272076696577426f783d273020302033353020333530273e3c7374796c653e2e62617365207b2066696c6c3a2077686974653b20666f6e742d66616d696c793a2073657269663b20666f6e742d73697a653a20323470783b207d3c2f7374796c653e3c726563742077696474683d273130302527206865696768743d2731303025272066696c6c3d27272f3e3c7465787420783d273530252720793d273530252720636c6173733d27626173652720646f6d696e616e742d626173656c696e653d276d6964646c652720746578742d616e63686f723d276d6964646c65273e",
  "linkReferences": {},
  "deployedLinkReferences": {}
}