{
  "_format": "hh-sol-artifact-1",
  "contractName": "MyEpicNFT",
  "sourceName": "contracts/MyEpicNFT.sol",
  "abi": [
    {
      "inputs": [],
      "stateMutability": "nonpayable",
      "type": "constructor"
    },
    {
      "anonymous": false,
      "inputs": [
        {
          "indexed": true,
          "internalType": "address",
          "name": "owner",
          "type": "address"
        },
        {
          "indexed": true,
          "internalType": "address",
          "name": "approved",
          "type": "address"
        },
        {
          "indexed": true,
          "internalType": "uint256",
          "name": "tokenId",
          "type": "uint256"
        }
      ],
      "name": "Approval",
      "type": "event"
    },
    {
      "anonymous": false,
      "inputs": [
        {
          "indexed": true,
          "internalType": "address",
          "name": "owner",
          "type": "address"
        },
        {
          "indexed": true,
          "internalType": "address",
          "name": "operator",
          "type": "address"
        },
        {
          "indexed": false,
          "internalType": "bool",
          "name": "approved",
          "type": "bool"
        }
      ],
      "name": "ApprovalForAll",
      "type": "event"
    },
    {
      "anonymous": false,
      "inputs": [
        {
          "indexed": false,
          "internalType": "address",
          "name": "sender",
          "type": "address"
        },
        {
          "indexed": false,
          "internalType": "uint256",
          "name": "tokenId",
          "type": "uint256"
        }
      ],
      "name": "NewEpicNFTMinted",
      "type": "event"
    },
    {
      "anonymous": false,
      "inputs": [
        {
          "indexed": true,
          "internalType": "address",
          "name": "from",
          "type": "address"
        },
        {
          "indexed": true,
          "internalType": "address",
          "name": "to",
          "type": "address"
        },
        {
          "indexed": true,
          "internalType": "uint256",
          "name": "tokenId",
          "type": "uint256"
        }
      ],
      "name": "Transfer",
      "type": "event"
    },
    {
      "inputs": [
        {
          "internalType": "address",
          "name": "to",
          "type": "address"
        },
        {
          "internalType": "uint256",
          "name": "tokenId",
          "type": "uint256"
        }
      ],
      "name": "approve",
      "outputs": [],
      "stateMutability": "nonpayable",
      "type": "function"
    },
    {
      "inputs": [
        {
          "internalType": "address",
          "name": "owner",
          "type": "address"
        }
      ],
      "name": "balanceOf",
      "outputs": [
        {
          "internalType": "uint256",
          "name": "",
          "type": "uint256"
        }
      ],
      "stateMutability": "view",
      "type": "function"
    },
    {
      "inputs": [
        {
          "internalType": "uint256",
          "name": "tokenId",
          "type": "uint256"
        }
      ],
      "name": "getApproved",
      "outputs": [
        {
          "internalType": "address",
          "name": "",
          "type": "address"
        }
      ],
      "stateMutability": "view",
      "type": "function"
    },
    {
      "inputs": [
        {
          "internalType": "address",
          "name": "owner",
          "type": "address"
        },
        {
          "internalType": "address",
          "name": "operator",
          "type": "address"
        }
      ],
      "name": "isApprovedForAll",
      "outputs": [
        {
          "internalType": "bool",
          "name": "",
          "type": "bool"
        }
      ],
      "stateMutability": "view",
      "type": "function"
    },
    {
      "inputs": [],
      "name": "makeAnEpicNFT",
      "outputs": [],
      "stateMutability": "nonpayable",
      "type": "function"
    },
    {
      "inputs": [],
      "name": "name",
      "outputs": [
        {
          "internalType": "string",
          "name": "",
          "type": "string"
        }
      ],
      "stateMutability": "view",
      "type": "function"
    },
    {
      "inputs": [
        {
          "internalType": "uint256",
          "name": "tokenId",
          "type": "uint256"
        }
      ],
      "name": "ownerOf",
      "outputs": [
        {
          "internalType": "address",
          "name": "",
          "type": "address"
        }
      ],
      "stateMutability": "view",
      "type": "function"
    },
    {
      "inputs": [
        {
          "internalType": "uint256",
          "name": "tokenId",
          "type": "uint256"
        }
      ],
      "name": "pickRandomColor",
      "outputs": [
        {
          "internalType": "string",
          "name": "",
          "type": "string"
        }
      ],
      "stateMutability": "view",
      "type": "function"
    },
    {
      "inputs": [
        {
          "internalType": "uint256",
          "name": "tokenId",
          "type": "uint256"
        }
      ],
      "name": "pickRandomFirstWord",
      "outputs": [
        {
          "internalType": "string",
          "name": "",
          "type": "string"
        }
      ],
      "stateMutability": "view",
      "type": "function"
    },
    {
      "inputs": [
        {
          "internalType": "uint256",
          "name": "tokenId",
          "type": "uint256"
        }
      ],
      "name": "pickRandomSecondWord",
      "outputs": [
        {
          "internalType": "string",
          "name": "",
          "type": "string"
        }
      ],
      "stateMutability": "view",
      "type": "function"
    },
    {
      "inputs": [
        {
          "internalType": "uint256",
          "name": "tokenId",
          "type": "uint256"
        }
      ],
      "name": "pickRandomThirdWord",
      "outputs": [
        {
          "internalType": "string",
          "name": "",
          "type": "string"
        }
      ],
      "stateMutability": "view",
      "type": "function"
    },
    {
      "inputs": [
        {
          "internalType": "address",
          "name": "from",
          "type": "address"
        },
        {
          "internalType": "address",
          "name": "to",
          "type": "address"
        },
        {
          "internalType": "uint256",
          "name": "tokenId",
          "type": "uint256"
        }
      ],
      "name": "safeTransferFrom",
      "outputs": [],
      "stateMutability": "nonpayable",
      "type": "function"
    },
    {
      "inputs": [
        {
          "internalType": "address",
          "name": "from",
          "type": "address"
        },
        {
          "internalType": "address",
          "name": "to",
          "type": "address"
        },
        {
          "internalType": "uint256",
          "name": "tokenId",
          "type": "uint256"
        },
        {
          "internalType": "bytes",
          "name": "data",
          "type": "bytes"
        }
      ],
      "name": "safeTransferFrom",
      "outputs": [],
      "stateMutability": "nonpayable",
      "type": "function"
    },
    {
      "inputs": [
        {
          "internalType": "address",
          "name": "operator",
          "type": "address"
        },
        {
          "internalType": "bool",
          "name": "approved",
          "type": "bool"
        }
      ],
      "name": "setApprovalForAll",
      "outputs": [],
      "stateMutability": "nonpayable",
      "type": "function"
    },
    {
      "inputs": [
        {
          "internalType": "bytes4",
          "name": "interfaceId",
          "type": "bytes4"
        }
      ],
      "name": "supportsInterface",
      "outputs": [
        {
          "internalType": "bool",
          "name": "",
          "type": "bool"
        }
      ],
      "stateMutability": "view",
      "type": "function"
    },
    {
      "inputs": [],
      "name": "symbol",
      "outputs": [
        {
          "internalType": "string",
          "name": "",
          "type": "string"
        }
      ],
      "stateMutability": "view",
      "type": "function"
    },
    {
      "inputs": [
        {
          "internalType": "uint256",
          "name": "tokenId",
          "type": "uint256"
        }
      ],
      "name": "tokenURI",
      "outputs": [
        {
          "internalType": "string",
          "name": "",
          "type": "string"
        }
      ],
      "stateMutability": "view",
      "type": "function"
    },
    {
      "inputs": [
        {
          "internalType": "address",
          "name": "from",
          "type": "address"
        },
        {
          "internalType": "address",
          "name": "to",
          "type": "address"
        },
        {
          "internalType": "uint256",
          "name": "tokenId",
          "type": "uint256"
        }
      ],
      "name": "transferFrom",
      "outputs": [],
      "stateMutability": "nonpayable",
      "type": "function"
    }
  ],
  "bytecode": "0x608060405260405180610100016040528060d381526020016200487d60d39139600890805190602001906200003692919062000bdf565b506040518060800160405280605681526020016200495060569139600990805190602001906200006892919062000bdf565b506040518060e001604052806040518060400160405280600981526020017f46616e746173746963000000000000000000000000000000000000000000000081525081526020016040518060400160405280600481526020017f457069630000000000000000000000000000000000000000000000000000000081525081526020016040518060400160405280600881526020017f5465727269626c6500000000000000000000000000000000000000000000000081525081526020016040518060400160405280600581526020017f4372617a7900000000000000000000000000000000000000000000000000000081525081526020016040518060400160405280600481526020017f57696c640000000000000000000000000000000000000000000000000000000081525081526020016040518060400160405280600a81526020017f54657272696679696e670000000000000000000000000000000000000000000081525081526020016040518060400160405280600681526020017f53706f6f6b790000000000000000000000000000000000000000000000000000815250815250600a9060076200022192919062000c70565b506040518061012001604052806040518060400160405280600781526020017f57617272696f720000000000000000000000000000000000000000000000000081525081526020016040518060400160405280600781526020017f50616c6164696e0000000000000000000000000000000000000000000000000081525081526020016040518060400160405280600681526020017f48756e746572000000000000000000000000000000000000000000000000000081525081526020016040518060400160405280600581526020017f526f67756500000000000000000000000000000000000000000000000000000081525081526020016040518060400160405280600681526020017f507269657374000000000000000000000000000000000000000000000000000081525081526020016040518060400160405280600681526020017f5368616d616e000000000000000000000000000000000000000000000000000081525081526020016040518060400160405280600481526020017f4d6167650000000000000000000000000000000000000000000000000000000081525081526020016040518060400160405280600781526020017f5761726c6f636b0000000000000000000000000000000000000000000000000081525081526020016040518060400160405280600581526020017f4472756964000000000000000000000000000000000000000000000000000000815250815250600b9060096200045192919062000cd7565b506040518061014001604052806040518060400160405280600381526020017f4f7263000000000000000000000000000000000000000000000000000000000081525081526020016040518060400160405280600381526020017f456c66000000000000000000000000000000000000000000000000000000000081525081526020016040518060400160405280600681526020017f556e64656164000000000000000000000000000000000000000000000000000081525081526020016040518060400160405280600681526020017f54617572656e000000000000000000000000000000000000000000000000000081525081526020016040518060400160405280600581526020017f54726f6c6c00000000000000000000000000000000000000000000000000000081525081526020016040518060400160405280600681526020017f476f626c696e000000000000000000000000000000000000000000000000000081525081526020016040518060400160405280600581526020017f48756d616e00000000000000000000000000000000000000000000000000000081525081526020016040518060400160405280600581526020017f447761726600000000000000000000000000000000000000000000000000000081525081526020016040518060400160405280600581526020017f476e6f6d6500000000000000000000000000000000000000000000000000000081525081526020016040518060400160405280600681526020017f576f7267656e0000000000000000000000000000000000000000000000000000815250815250600c90600a620006bc92919062000d3e565b50604051806101c001604052806040518060400160405280600781526020017f233237323732610000000000000000000000000000000000000000000000000081525081526020016040518060400160405280600781526020017f236566343434340000000000000000000000000000000000000000000000000081525081526020016040518060400160405280600781526020017f236662393233630000000000000000000000000000000000000000000000000081525081526020016040518060400160405280600781526020017f236661636331350000000000000000000000000000000000000000000000000081525081526020016040518060400160405280600781526020017f236133653633350000000000000000000000000000000000000000000000000081525081526020016040518060400160405280600781526020017f233461646538300000000000000000000000000000000000000000000000000081525081526020016040518060400160405280600781526020017f233264643462660000000000000000000000000000000000000000000000000081525081526020016040518060400160405280600781526020017f233232643365650000000000000000000000000000000000000000000000000081525081526020016040518060400160405280600781526020017f233630613566610000000000000000000000000000000000000000000000000081525081526020016040518060400160405280600781526020017f233831386366380000000000000000000000000000000000000000000000000081525081526020016040518060400160405280600781526020017f236330383466630000000000000000000000000000000000000000000000000081525081526020016040518060400160405280600781526020017f236538373966390000000000000000000000000000000000000000000000000081525081526020016040518060400160405280600781526020017f236634373262360000000000000000000000000000000000000000000000000081525081526020016040518060400160405280600781526020017f2366343366356500000000000000000000000000000000000000000000000000815250815250600d90600e62000a1392919062000da5565b5034801562000a2157600080fd5b506040518060400160405280600981526020017f5371756172654e465400000000000000000000000000000000000000000000008152506040518060400160405280600681526020017f5351554152450000000000000000000000000000000000000000000000000000815250816000908051906020019062000aa692919062000bdf565b50806001908051906020019062000abf92919062000bdf565b50505062000b0d6040518060400160405280601781526020017f54686973206973206d79206e667420636f6e747261637400000000000000000081525062000b1360201b620011ac1760201c565b62000fc6565b62000bb38160405160240162000b2a919062000eda565b6040516020818303038152906040527f41304fac000000000000000000000000000000000000000000000000000000007bffffffffffffffffffffffffffffffffffffffffffffffffffffffff19166020820180517bffffffffffffffffffffffffffffffffffffffffffffffffffffffff838183161783525050505062000bb660201b60201c565b50565b60008151905060006a636f6e736f6c652e6c6f679050602083016000808483855afa5050505050565b82805462000bed9062000f50565b90600052602060002090601f01602090048101928262000c11576000855562000c5d565b82601f1062000c2c57805160ff191683800117855562000c5d565b8280016001018555821562000c5d579182015b8281111562000c5c57825182559160200191906001019062000c3f565b5b50905062000c6c919062000e0c565b5090565b82805482825590600052602060002090810192821562000cc4579160200282015b8281111562000cc357825182908051906020019062000cb292919062000bdf565b509160200191906001019062000c91565b5b50905062000cd3919062000e2b565b5090565b82805482825590600052602060002090810192821562000d2b579160200282015b8281111562000d2a57825182908051906020019062000d1992919062000bdf565b509160200191906001019062000cf8565b5b50905062000d3a919062000e2b565b5090565b82805482825590600052602060002090810192821562000d92579160200282015b8281111562000d9157825182908051906020019062000d8092919062000bdf565b509160200191906001019062000d5f565b5b50905062000da1919062000e2b565b5090565b82805482825590600052602060002090810192821562000df9579160200282015b8281111562000df857825182908051906020019062000de792919062000bdf565b509160200191906001019062000dc6565b5b50905062000e08919062000e2b565b5090565b5b8082111562000e2757600081600090555060010162000e0d565b5090565b5b8082111562000e4f576000818162000e45919062000e53565b5060010162000e2c565b5090565b50805462000e619062000f50565b6000825580601f1062000e75575062000e96565b601f01602090049060005260206000209081019062000e95919062000e0c565b5b50565b600062000ea68262000efe565b62000eb2818562000f09565b935062000ec481856020860162000f1a565b62000ecf8162000fb5565b840191505092915050565b6000602082019050818103600083015262000ef6818462000e99565b905092915050565b600081519050919050565b600082825260208201905092915050565b60005b8381101562000f3a57808201518184015260208101905062000f1d565b8381111562000f4a576000848401525b50505050565b6000600282049050600182168062000f6957607f821691505b6020821081141562000f805762000f7f62000f86565b5b50919050565b7f4e487b7100000000000000000000000000000000000000000000000000000000600052602260045260246000fd5b6000601f19601f8301169050919050565b6138a78062000fd66000396000f3fe608060405234801561001057600080fd5b50600436106101165760003560e01c806370a08231116100a2578063b88d4fde11610071578063b88d4fde14610317578063c575757a14610333578063c87b56dd14610363578063de9d132f14610393578063e985e9c51461039d57610116565b806370a082311461027d57806395d89b41146102ad578063a22cb465146102cb578063b187301f146102e757610116565b806323b872dd116100e957806323b872dd146101b55780632de38d68146101d157806342842e0e14610201578063514dc8c61461021d5780636352211e1461024d57610116565b806301ffc9a71461011b57806306fdde031461014b578063081812fc14610169578063095ea7b314610199575b600080fd5b6101356004803603810190610130919061259b565b6103cd565b6040516101429190612c78565b60405180910390f35b6101536104af565b6040516101609190612c93565b60405180910390f35b610183600480360381019061017e91906125ed565b610541565b6040516101909190612be8565b60405180910390f35b6101b360048036038101906101ae919061255f565b610587565b005b6101cf60048036038101906101ca9190612459565b61069f565b005b6101eb60048036038101906101e691906125ed565b6106ff565b6040516101f89190612c93565b60405180910390f35b61021b60048036038101906102169190612459565b61081d565b005b610237600480360381019061023291906125ed565b61083d565b6040516102449190612c93565b60405180910390f35b610267600480360381019061026291906125ed565b61095b565b6040516102749190612be8565b60405180910390f35b610297600480360381019061029291906123f4565b610a0d565b6040516102a49190612e73565b60405180910390f35b6102b5610ac5565b6040516102c29190612c93565b60405180910390f35b6102e560048036038101906102e09190612523565b610b57565b005b61030160048036038101906102fc91906125ed565b610b6d565b60405161030e9190612c93565b60405180910390f35b610331600480360381019061032c91906124a8565b610c8b565b005b61034d600480360381019061034891906125ed565b610ced565b60405161035a9190612c93565b60405180910390f35b61037d600480360381019061037891906125ed565b610e0b565b60405161038a9190612c93565b60405180910390f35b61039b610f1e565b005b6103b760048036038101906103b2919061241d565b611118565b6040516103c49190612c78565b60405180910390f35b60007f80ac58cd000000000000000000000000000000000000000000000000000000007bffffffffffffffffffffffffffffffffffffffffffffffffffffffff1916827bffffffffffffffffffffffffffffffffffffffffffffffffffffffff1916148061049857507f5b5e139f000000000000000000000000000000000000000000000000000000007bffffffffffffffffffffffffffffffffffffffffffffffffffffffff1916827bffffffffffffffffffffffffffffffffffffffffffffffffffffffff1916145b806104a857506104a782611245565b5b9050919050565b6060600080546104be90613107565b80601f01602080910402602001604051908101604052809291908181526020018280546104ea90613107565b80156105375780601f1061050c57610100808354040283529160200191610537565b820191906000526020600020905b81548152906001019060200180831161051a57829003601f168201915b5050505050905090565b600061054c826112af565b6004600083815260200190815260200160002060009054906101000a900473ffffffffffffffffffffffffffffffffffffffff169050919050565b60006105928261095b565b90508073ffffffffffffffffffffffffffffffffffffffff168373ffffffffffffffffffffffffffffffffffffffff161415610603576040517f08c379a00000000000000000000000000000000000000000000000000000000081526004016105fa90612e33565b60405180910390fd5b8073ffffffffffffffffffffffffffffffffffffffff166106226112fa565b73ffffffffffffffffffffffffffffffffffffffff16148061065157506106508161064b6112fa565b611118565b5b610690576040517f08c379a000000000000000000000000000000000000000000000000000000000815260040161068790612dd3565b60405180910390fd5b61069a8383611302565b505050565b6106b06106aa6112fa565b826113bb565b6106ef576040517f08c379a00000000000000000000000000000000000000000000000000000000081526004016106e690612e53565b60405180910390fd5b6106fa838383611450565b505050565b6060600061073361070f846116b7565b60405160200161071f9190612b82565b604051602081830303815290604052611864565b9050600a805490508161074691906131b3565b9050600a8181548110610782577f4e487b7100000000000000000000000000000000000000000000000000000000600052603260045260246000fd5b90600052602060002001805461079790613107565b80601f01602080910402602001604051908101604052809291908181526020018280546107c390613107565b80156108105780601f106107e557610100808354040283529160200191610810565b820191906000526020600020905b8154815290600101906020018083116107f357829003601f168201915b5050505050915050919050565b61083883838360405180602001604052806000815250610c8b565b505050565b6060600061087161084d846116b7565b60405160200161085d9190612bc6565b604051602081830303815290604052611864565b9050600d805490508161088491906131b3565b9050600d81815481106108c0577f4e487b7100000000000000000000000000000000000000000000000000000000600052603260045260246000fd5b9060005260206000200180546108d590613107565b80601f016020809104026020016040519081016040528092919081815260200182805461090190613107565b801561094e5780601f106109235761010080835404028352916020019161094e565b820191906000526020600020905b81548152906001019060200180831161093157829003601f168201915b5050505050915050919050565b6000806002600084815260200190815260200160002060009054906101000a900473ffffffffffffffffffffffffffffffffffffffff169050600073ffffffffffffffffffffffffffffffffffffffff168173ffffffffffffffffffffffffffffffffffffffff161415610a04576040517f08c379a00000000000000000000000000000000000000000000000000000000081526004016109fb90612e13565b60405180910390fd5b80915050919050565b60008073ffffffffffffffffffffffffffffffffffffffff168273ffffffffffffffffffffffffffffffffffffffff161415610a7e576040517f08c379a0000000000000000000000000000000000000000000000000000000008152600401610a7590612d93565b60405180910390fd5b600360008373ffffffffffffffffffffffffffffffffffffffff1673ffffffffffffffffffffffffffffffffffffffff168152602001908152602001600020549050919050565b606060018054610ad490613107565b80601f0160208091040260200160405190810160405280929190818152602001828054610b0090613107565b8015610b4d5780601f10610b2257610100808354040283529160200191610b4d565b820191906000526020600020905b815481529060010190602001808311610b3057829003601f168201915b5050505050905090565b610b69610b626112fa565b8383611897565b5050565b60606000610ba1610b7d846116b7565b604051602001610b8d9190612b1b565b604051602081830303815290604052611864565b9050600b8054905081610bb491906131b3565b9050600b8181548110610bf0577f4e487b7100000000000000000000000000000000000000000000000000000000600052603260045260246000fd5b906000526020600020018054610c0590613107565b80601f0160208091040260200160405190810160405280929190818152602001828054610c3190613107565b8015610c7e5780601f10610c5357610100808354040283529160200191610c7e565b820191906000526020600020905b815481529060010190602001808311610c6157829003601f168201915b5050505050915050919050565b610c9c610c966112fa565b836113bb565b610cdb576040517f08c379a0000000000000000000000000000000000000000000000000000000008152600401610cd290612e53565b60405180910390fd5b610ce784848484611a04565b50505050565b60606000610d21610cfd846116b7565b604051602001610d0d9190612af9565b604051602081830303815290604052611864565b9050600c8054905081610d3491906131b3565b9050600c8181548110610d70577f4e487b7100000000000000000000000000000000000000000000000000000000600052603260045260246000fd5b906000526020600020018054610d8590613107565b80601f0160208091040260200160405190810160405280929190818152602001828054610db190613107565b8015610dfe5780601f10610dd357610100808354040283529160200191610dfe565b820191906000526020600020905b815481529060010190602001808311610de157829003601f168201915b5050505050915050919050565b6060610e16826112af565b6000600660008481526020019081526020016000208054610e3690613107565b80601f0160208091040260200160405190810160405280929190818152602001828054610e6290613107565b8015610eaf5780601f10610e8457610100808354040283529160200191610eaf565b820191906000526020600020905b815481529060010190602001808311610e9257829003601f168201915b505050505090506000610ec0611a60565b9050600081511415610ed6578192505050610f19565b600082511115610f0b578082604051602001610ef3929190612a5b565b60405160208183030381529060405292505050610f19565b610f1484611a77565b925050505b919050565b6000610f2a6007611adf565b90506000610f37826106ff565b90506000610f4483610b6d565b90506000610f5184610ced565b90506000838383604051602001610f6a93929190612a7f565b60405160208183030381529060405290506000610f868661083d565b90506000600882600985604051602001610fa39493929190612ab0565b60405160208183030381529060405290506000610fe884610fc384611aed565b604051602001610fd4929190612b3d565b604051602081830303815290604052611aed565b9050600081604051602001610ffd9190612ba4565b604051602081830303815290604052905061104c6040518060400160405280601581526020017f0a2d2d2d2d2d2d2d2d2d2d2d2d2d2d2d2d2d2d2d2d00000000000000000000008152506111ac565b611055816111ac565b6110936040518060400160405280601581526020017f2d2d2d2d2d2d2d2d2d2d2d2d2d2d2d2d2d2d2d2d0a00000000000000000000008152506111ac565b61109d338a611cab565b6110a78982611cc9565b6110b16007611d3d565b6110d460405180606001604052806025815260200161380d602591398a33611d53565b7febb98688741ffa4c7589bf325de30cf7becb63de567842e1ccdb6cb949fdc82c338a604051611105929190612c4f565b60405180910390a1505050505050505050565b6000600560008473ffffffffffffffffffffffffffffffffffffffff1673ffffffffffffffffffffffffffffffffffffffff16815260200190815260200160002060008373ffffffffffffffffffffffffffffffffffffffff1673ffffffffffffffffffffffffffffffffffffffff16815260200190815260200160002060009054906101000a900460ff16905092915050565b611242816040516024016111c09190612c93565b6040516020818303038152906040527f41304fac000000000000000000000000000000000000000000000000000000007bffffffffffffffffffffffffffffffffffffffffffffffffffffffff19166020820180517bffffffffffffffffffffffffffffffffffffffffffffffffffffffff8381831617835250505050611df2565b50565b60007f01ffc9a7000000000000000000000000000000000000000000000000000000007bffffffffffffffffffffffffffffffffffffffffffffffffffffffff1916827bffffffffffffffffffffffffffffffffffffffffffffffffffffffff1916149050919050565b6112b881611e1b565b6112f7576040517f08c379a00000000000000000000000000000000000000000000000000000000081526004016112ee90612e13565b60405180910390fd5b50565b600033905090565b816004600083815260200190815260200160002060006101000a81548173ffffffffffffffffffffffffffffffffffffffff021916908373ffffffffffffffffffffffffffffffffffffffff160217905550808273ffffffffffffffffffffffffffffffffffffffff166113758361095b565b73ffffffffffffffffffffffffffffffffffffffff167f8c5be1e5ebec7d5bd14f71427d1e84f3dd0314c0f7b2291e5b200ac8c7c3b92560405160405180910390a45050565b6000806113c78361095b565b90508073ffffffffffffffffffffffffffffffffffffffff168473ffffffffffffffffffffffffffffffffffffffff16148061140957506114088185611118565b5b8061144757508373ffffffffffffffffffffffffffffffffffffffff1661142f84610541565b73ffffffffffffffffffffffffffffffffffffffff16145b91505092915050565b8273ffffffffffffffffffffffffffffffffffffffff166114708261095b565b73ffffffffffffffffffffffffffffffffffffffff16146114c6576040517f08c379a00000000000000000000000000000000000000000000000000000000081526004016114bd90612d13565b60405180910390fd5b600073ffffffffffffffffffffffffffffffffffffffff168273ffffffffffffffffffffffffffffffffffffffff161415611536576040517f08c379a000000000000000000000000000000000000000000000000000000000815260040161152d90612d53565b60405180910390fd5b611541838383611e87565b61154c600082611302565b6001600360008573ffffffffffffffffffffffffffffffffffffffff1673ffffffffffffffffffffffffffffffffffffffff168152602001908152602001600020600082825461159c919061301d565b925050819055506001600360008473ffffffffffffffffffffffffffffffffffffffff1673ffffffffffffffffffffffffffffffffffffffff16815260200190815260200160002060008282546115f39190612f3c565b92505081905550816002600083815260200190815260200160002060006101000a81548173ffffffffffffffffffffffffffffffffffffffff021916908373ffffffffffffffffffffffffffffffffffffffff160217905550808273ffffffffffffffffffffffffffffffffffffffff168473ffffffffffffffffffffffffffffffffffffffff167fddf252ad1be2c89b69c2b068fc378daa952ba7f163c4a11628f55a4df523b3ef60405160405180910390a46116b2838383611e8c565b505050565b606060008214156116ff576040518060400160405280600181526020017f3000000000000000000000000000000000000000000000000000000000000000815250905061185f565b600082905060005b6000821461173157808061171a9061316a565b915050600a8261172a9190612f92565b9150611707565b60008167ffffffffffffffff811115611773577f4e487b7100000000000000000000000000000000000000000000000000000000600052604160045260246000fd5b6040519080825280601f01601f1916602001820160405280156117a55781602001600182028036833780820191505090505b5090505b60008514611858576001826117be919061301d565b9150600a856117cd91906131b3565b60306117d99190612f3c565b60f81b818381518110611815577f4e487b7100000000000000000000000000000000000000000000000000000000600052603260045260246000fd5b60200101907effffffffffffffffffffffffffffffffffffffffffffffffffffffffffffff1916908160001a905350600a856118519190612f92565b94506117a9565b8093505050505b919050565b6000816040516020016118779190612a44565b6040516020818303038152906040528051906020012060001c9050919050565b8173ffffffffffffffffffffffffffffffffffffffff168373ffffffffffffffffffffffffffffffffffffffff161415611906576040517f08c379a00000000000000000000000000000000000000000000000000000000081526004016118fd90612d73565b60405180910390fd5b80600560008573ffffffffffffffffffffffffffffffffffffffff1673ffffffffffffffffffffffffffffffffffffffff16815260200190815260200160002060008473ffffffffffffffffffffffffffffffffffffffff1673ffffffffffffffffffffffffffffffffffffffff16815260200190815260200160002060006101000a81548160ff0219169083151502179055508173ffffffffffffffffffffffffffffffffffffffff168373ffffffffffffffffffffffffffffffffffffffff167f17307eab39ab6107e8899845ad3d59bd9653f200f220920489ca2b5937696c31836040516119f79190612c78565b60405180910390a3505050565b611a0f848484611450565b611a1b84848484611e91565b611a5a576040517f08c379a0000000000000000000000000000000000000000000000000000000008152600401611a5190612cf3565b60405180910390fd5b50505050565b606060405180602001604052806000815250905090565b6060611a82826112af565b6000611a8c611a60565b90506000815111611aac5760405180602001604052806000815250611ad7565b80611ab6846116b7565b604051602001611ac7929190612a5b565b6040516020818303038152906040525b915050919050565b600081600001549050919050565b60606000825190506000811415611b165760405180602001604052806000815250915050611ca6565b60006003600283611b279190612f3c565b611b319190612f92565b6004611b3d9190612fc3565b90506000602082611b4e9190612f3c565b67ffffffffffffffff811115611b8d577f4e487b7100000000000000000000000000000000000000000000000000000000600052604160045260246000fd5b6040519080825280601f01601f191660200182016040528015611bbf5781602001600182028036833780820191505090505b5090506000604051806060016040528060408152602001613832604091399050600181016020830160005b86811015611c635760038101905062ffffff818a015116603f8160121c168401518060081b905060ff603f83600c1c1686015116810190508060081b905060ff603f8360061c1686015116810190508060081b905060ff603f831686015116810190508060e01b90508084526004840193505050611bea565b506003860660018114611c7d5760028114611c8d57611c98565b613d3d60f01b6002830352611c98565b603d60f81b60018303525b508484525050819450505050505b919050565b611cc5828260405180602001604052806000815250612028565b5050565b611cd282611e1b565b611d11576040517f08c379a0000000000000000000000000000000000000000000000000000000008152600401611d0890612db3565b60405180910390fd5b80600660008481526020019081526020016000209080519060200190611d38929190612280565b505050565b6001816000016000828254019250508190555050565b611ded838383604051602401611d6b93929190612cb5565b6040516020818303038152906040527fe3849f79000000000000000000000000000000000000000000000000000000007bffffffffffffffffffffffffffffffffffffffffffffffffffffffff19166020820180517bffffffffffffffffffffffffffffffffffffffffffffffffffffffff8381831617835250505050611df2565b505050565b60008151905060006a636f6e736f6c652e6c6f679050602083016000808483855afa5050505050565b60008073ffffffffffffffffffffffffffffffffffffffff166002600084815260200190815260200160002060009054906101000a900473ffffffffffffffffffffffffffffffffffffffff1673ffffffffffffffffffffffffffffffffffffffff1614159050919050565b505050565b505050565b6000611eb28473ffffffffffffffffffffffffffffffffffffffff16612083565b1561201b578373ffffffffffffffffffffffffffffffffffffffff1663150b7a02611edb6112fa565b8786866040518563ffffffff1660e01b8152600401611efd9493929190612c03565b602060405180830381600087803b158015611f1757600080fd5b505af1925050508015611f4857506040513d601f19601f82011682018060405250810190611f4591906125c4565b60015b611fcb573d8060008114611f78576040519150601f19603f3d011682016040523d82523d6000602084013e611f7d565b606091505b50600081511415611fc3576040517f08c379a0000000000000000000000000000000000000000000000000000000008152600401611fba90612cf3565b60405180910390fd5b805181602001fd5b63150b7a0260e01b7bffffffffffffffffffffffffffffffffffffffffffffffffffffffff1916817bffffffffffffffffffffffffffffffffffffffffffffffffffffffff191614915050612020565b600190505b949350505050565b61203283836120a6565b61203f6000848484611e91565b61207e576040517f08c379a000000000000000000000000000000000000000000000000000000000815260040161207590612cf3565b60405180910390fd5b505050565b6000808273ffffffffffffffffffffffffffffffffffffffff163b119050919050565b600073ffffffffffffffffffffffffffffffffffffffff168273ffffffffffffffffffffffffffffffffffffffff161415612116576040517f08c379a000000000000000000000000000000000000000000000000000000000815260040161210d90612df3565b60405180910390fd5b61211f81611e1b565b1561215f576040517f08c379a000000000000000000000000000000000000000000000000000000000815260040161215690612d33565b60405180910390fd5b61216b60008383611e87565b6001600360008473ffffffffffffffffffffffffffffffffffffffff1673ffffffffffffffffffffffffffffffffffffffff16815260200190815260200160002060008282546121bb9190612f3c565b92505081905550816002600083815260200190815260200160002060006101000a81548173ffffffffffffffffffffffffffffffffffffffff021916908373ffffffffffffffffffffffffffffffffffffffff160217905550808273ffffffffffffffffffffffffffffffffffffffff16600073ffffffffffffffffffffffffffffffffffffffff167fddf252ad1be2c89b69c2b068fc378daa952ba7f163c4a11628f55a4df523b3ef60405160405180910390a461227c60008383611e8c565b5050565b82805461228c90613107565b90600052602060002090601f0160209004810192826122ae57600085556122f5565b82601f106122c757805160ff19168380011785556122f5565b828001600101855582156122f5579182015b828111156122f45782518255916020019190600101906122d9565b5b5090506123029190612306565b5090565b5b8082111561231f576000816000905550600101612307565b5090565b600061233661233184612eb3565b612e8e565b90508281526020810184848401111561234e57600080fd5b6123598482856130c5565b509392505050565b600081359050612370816137b0565b92915050565b600081359050612385816137c7565b92915050565b60008135905061239a816137de565b92915050565b6000815190506123af816137de565b92915050565b600082601f8301126123c657600080fd5b81356123d6848260208601612323565b91505092915050565b6000813590506123ee816137f5565b92915050565b60006020828403121561240657600080fd5b600061241484828501612361565b91505092915050565b6000806040838503121561243057600080fd5b600061243e85828601612361565b925050602061244f85828601612361565b9150509250929050565b60008060006060848603121561246e57600080fd5b600061247c86828701612361565b935050602061248d86828701612361565b925050604061249e868287016123df565b9150509250925092565b600080600080608085870312156124be57600080fd5b60006124cc87828801612361565b94505060206124dd87828801612361565b93505060406124ee878288016123df565b925050606085013567ffffffffffffffff81111561250b57600080fd5b612517878288016123b5565b91505092959194509250565b6000806040838503121561253657600080fd5b600061254485828601612361565b925050602061255585828601612376565b9150509250929050565b6000806040838503121561257257600080fd5b600061258085828601612361565b9250506020612591858286016123df565b9150509250929050565b6000602082840312156125ad57600080fd5b60006125bb8482850161238b565b91505092915050565b6000602082840312156125d657600080fd5b60006125e4848285016123a0565b91505092915050565b6000602082840312156125ff57600080fd5b600061260d848285016123df565b91505092915050565b61261f81613051565b82525050565b61262e81613063565b82525050565b600061263f82612ef9565b6126498185612f0f565b93506126598185602086016130d4565b612662816132a0565b840191505092915050565b600061267882612f04565b6126828185612f20565b93506126928185602086016130d4565b61269b816132a0565b840191505092915050565b60006126b182612f04565b6126bb8185612f31565b93506126cb8185602086016130d4565b80840191505092915050565b600081546126e481613107565b6126ee8186612f31565b94506001821660008114612709576001811461271a5761274d565b60ff1983168652818601935061274d565b61272385612ee4565b60005b8381101561274557815481890152600182019150602081019050612726565b838801955050505b50505092915050565b6000612763603283612f20565b915061276e826132b1565b604082019050919050565b6000612786602583612f20565b915061279182613300565b604082019050919050565b60006127a9601c83612f20565b91506127b48261334f565b602082019050919050565b60006127cc600a83612f31565b91506127d782613378565b600a82019050919050565b60006127ef602483612f20565b91506127fa826133a1565b604082019050919050565b6000612812601983612f20565b915061281d826133f0565b602082019050919050565b6000612835606383612f31565b915061284082613419565b606382019050919050565b6000612858600b83612f31565b9150612863826134b4565b600b82019050919050565b600061287b600d83612f31565b9150612886826134dd565b600d82019050919050565b600061289e602983612f20565b91506128a982613506565b604082019050919050565b60006128c1602e83612f20565b91506128cc82613555565b604082019050919050565b60006128e4600283612f31565b91506128ef826135a4565b600282019050919050565b6000612907603e83612f20565b9150612912826135cd565b604082019050919050565b600061292a602083612f20565b91506129358261361c565b602082019050919050565b600061294d600a83612f31565b915061295882613645565b600a82019050919050565b6000612970601883612f20565b915061297b8261366e565b602082019050919050565b6000612993602183612f20565b915061299e82613697565b604082019050919050565b60006129b6600a83612f31565b91506129c1826136e6565b600a82019050919050565b60006129d9601d83612f31565b91506129e48261370f565b601d82019050919050565b60006129fc600583612f31565b9150612a0782613738565b600582019050919050565b6000612a1f602e83612f20565b9150612a2a82613761565b604082019050919050565b612a3e816130bb565b82525050565b6000612a5082846126a6565b915081905092915050565b6000612a6782856126a6565b9150612a7382846126a6565b91508190509392505050565b6000612a8b82866126a6565b9150612a9782856126a6565b9150612aa382846126a6565b9150819050949350505050565b6000612abc82876126d7565b9150612ac882866126a6565b9150612ad482856126d7565b9150612ae082846126a6565b9150612aeb8261286e565b915081905095945050505050565b6000612b04826127bf565b9150612b1082846126a6565b915081905092915050565b6000612b268261284b565b9150612b3282846126a6565b915081905092915050565b6000612b4882612940565b9150612b5482856126a6565b9150612b5f82612828565b9150612b6b82846126a6565b9150612b76826128d7565b91508190509392505050565b6000612b8d826129a9565b9150612b9982846126a6565b915081905092915050565b6000612baf826129cc565b9150612bbb82846126a6565b915081905092915050565b6000612bd1826129ef565b9150612bdd82846126a6565b915081905092915050565b6000602082019050612bfd6000830184612616565b92915050565b6000608082019050612c186000830187612616565b612c256020830186612616565b612c326040830185612a35565b8181036060830152612c448184612634565b905095945050505050565b6000604082019050612c646000830185612616565b612c716020830184612a35565b9392505050565b6000602082019050612c8d6000830184612625565b92915050565b60006020820190508181036000830152612cad818461266d565b905092915050565b60006060820190508181036000830152612ccf818661266d565b9050612cde6020830185612a35565b612ceb6040830184612616565b949350505050565b60006020820190508181036000830152612d0c81612756565b9050919050565b60006020820190508181036000830152612d2c81612779565b9050919050565b60006020820190508181036000830152612d4c8161279c565b9050919050565b60006020820190508181036000830152612d6c816127e2565b9050919050565b60006020820190508181036000830152612d8c81612805565b9050919050565b60006020820190508181036000830152612dac81612891565b9050919050565b60006020820190508181036000830152612dcc816128b4565b9050919050565b60006020820190508181036000830152612dec816128fa565b9050919050565b60006020820190508181036000830152612e0c8161291d565b9050919050565b60006020820190508181036000830152612e2c81612963565b9050919050565b60006020820190508181036000830152612e4c81612986565b9050919050565b60006020820190508181036000830152612e6c81612a12565b9050919050565b6000602082019050612e886000830184612a35565b92915050565b6000612e98612ea9565b9050612ea48282613139565b919050565b6000604051905090565b600067ffffffffffffffff821115612ece57612ecd613271565b5b612ed7826132a0565b9050602081019050919050565b60008190508160005260206000209050919050565b600081519050919050565b600081519050919050565b600082825260208201905092915050565b600082825260208201905092915050565b600081905092915050565b6000612f47826130bb565b9150612f52836130bb565b9250827fffffffffffffffffffffffffffffffffffffffffffffffffffffffffffffffff03821115612f8757612f866131e4565b5b828201905092915050565b6000612f9d826130bb565b9150612fa8836130bb565b925082612fb857612fb7613213565b5b828204905092915050565b6000612fce826130bb565b9150612fd9836130bb565b9250817fffffffffffffffffffffffffffffffffffffffffffffffffffffffffffffffff0483118215151615613012576130116131e4565b5b828202905092915050565b6000613028826130bb565b9150613033836130bb565b925082821015613046576130456131e4565b5b828203905092915050565b600061305c8261309b565b9050919050565b60008115159050919050565b60007fffffffff0000000000000000000000000000000000000000000000000000000082169050919050565b600073ffffffffffffffffffffffffffffffffffffffff82169050919050565b6000819050919050565b82818337600083830152505050565b60005b838110156130f25780820151818401526020810190506130d7565b83811115613101576000848401525b50505050565b6000600282049050600182168061311f57607f821691505b6020821081141561313357613132613242565b5b50919050565b613142826132a0565b810181811067ffffffffffffffff8211171561316157613160613271565b5b80604052505050565b6000613175826130bb565b91507fffffffffffffffffffffffffffffffffffffffffffffffffffffffffffffffff8214156131a8576131a76131e4565b5b600182019050919050565b60006131be826130bb565b91506131c9836130bb565b9250826131d9576131d8613213565b5b828206905092915050565b7f4e487b7100000000000000000000000000000000000000000000000000000000600052601160045260246000fd5b7f4e487b7100000000000000000000000000000000000000000000000000000000600052601260045260246000fd5b7f4e487b7100000000000000000000000000000000000000000000000000000000600052602260045260246000fd5b7f4e487b7100000000000000000000000000000000000000000000000000000000600052604160045260246000fd5b6000601f19601f8301169050919050565b7f4552433732313a207472616e7366657220746f206e6f6e20455243373231526560008201527f63656976657220696d706c656d656e7465720000000000000000000000000000602082015250565b7f4552433732313a207472616e736665722066726f6d20696e636f72726563742060008201527f6f776e6572000000000000000000000000000000000000000000000000000000602082015250565b7f4552433732313a20746f6b656e20616c7265616479206d696e74656400000000600082015250565b7f54484952445f574f524400000000000000000000000000000000000000000000600082015250565b7f4552433732313a207472616e7366657220746f20746865207a65726f2061646460008201527f7265737300000000000000000000000000000000000000000000000000000000602082015250565b7f4552433732313a20617070726f766520746f2063616c6c657200000000000000600082015250565b7f222c20226465736372697074696f6e223a20224120686967686c79206163636c60008201527f61696d656420636f6c6c656374696f6e206f6620737175617265732e222c202260208201527f696d616765223a2022646174613a696d6167652f7376672b786d6c3b6261736560408201527f36342c0000000000000000000000000000000000000000000000000000000000606082015250565b7f5345434f4e445f574f5244000000000000000000000000000000000000000000600082015250565b7f3c2f746578743e3c2f7376673e00000000000000000000000000000000000000600082015250565b7f4552433732313a2061646472657373207a65726f206973206e6f74206120766160008201527f6c6964206f776e65720000000000000000000000000000000000000000000000602082015250565b7f45524337323155524953746f726167653a2055524920736574206f66206e6f6e60008201527f6578697374656e7420746f6b656e000000000000000000000000000000000000602082015250565b7f227d000000000000000000000000000000000000000000000000000000000000600082015250565b7f4552433732313a20617070726f76652063616c6c6572206973206e6f7420746f60008201527f6b656e206f776e6572206e6f7220617070726f76656420666f7220616c6c0000602082015250565b7f4552433732313a206d696e7420746f20746865207a65726f2061646472657373600082015250565b7f7b226e616d65223a202200000000000000000000000000000000000000000000600082015250565b7f4552433732313a20696e76616c696420746f6b656e2049440000000000000000600082015250565b7f4552433732313a20617070726f76616c20746f2063757272656e74206f776e6560008201527f7200000000000000000000000000000000000000000000000000000000000000602082015250565b7f46495253545f574f524400000000000000000000000000000000000000000000600082015250565b7f646174613a6170706c69636174696f6e2f6a736f6e3b6261736536342c000000600082015250565b7f434f4c4f52000000000000000000000000000000000000000000000000000000600082015250565b7f4552433732313a2063616c6c6572206973206e6f7420746f6b656e206f776e6560008201527f72206e6f7220617070726f766564000000000000000000000000000000000000602082015250565b6137b981613051565b81146137c457600080fd5b50565b6137d081613063565b81146137db57600080fd5b50565b6137e78161306f565b81146137f257600080fd5b50565b6137fe816130bb565b811461380957600080fd5b5056fe416e204e465420772f20494420257320686173206265656e206d696e74656420746f2025734142434445464748494a4b4c4d4e4f505152535455565758595a6162636465666768696a6b6c6d6e6f707172737475767778797a303132333435363738392b2fa264697066735822122091328abfdc2a0514341275961c2017a36fe6df10bfc538f164ff46b80849568764736f6c634300080100333c73766720786d6c6e733d27687474703a2f2f7777772e77332e6f72672f323030302f73766727207072657365727665417370656374526174696f3d27784d696e594d696e206d656574272076696577426f783d273020302033353020333530273e3c7374796c653e2e62617365207b2066696c6c3a2077686974653b20666f6e742d66616d696c793a2073657269663b20666f6e742d73697a653a20323470783b207d3c2f7374796c653e3c726563742077696474683d273130302527206865696768743d2731303025272066696c6c3d27272f3e3c7465787420783d273530252720793d273530252720636c6173733d27626173652720646f6d696e616e742d626173656c696e653d276d6964646c652720746578742d616e63686f723d276d6964646c65273e",
  "linkReferences": {},
  "deployedLinkReferences": {}
}