{
  "_format": "hh-sol-artifact-1",
  "contractName": "MyEpicNFT",
  "sourceName": "contracts/MyEpicNFT.sol",
  "abi": [
    {
      "inputs": [],
      "stateMutability": "nonpayable",
      "type": "constructor"
    },
    {
      "anonymous": false,
      "inputs": [
        {
          "indexed": true,
          "internalType": "address",
          "name": "owner",
          "type": "address"
        },
        {
          "indexed": true,
          "internalType": "address",
          "name": "approved",
          "type": "address"
        },
        {
          "indexed": true,
          "internalType": "uint256",
          "name": "tokenId",
          "type": "uint256"
        }
      ],
      "name": "Approval",
      "type": "event"
    },
    {
      "anonymous": false,
      "inputs": [
        {
          "indexed": true,
          "internalType": "address",
          "name": "owner",
          "type": "address"
        },
        {
          "indexed": true,
          "internalType": "address",
          "name": "operator",
          "type": "address"
        },
        {
          "indexed": false,
          "internalType": "bool",
          "name": "approved",
          "type": "bool"
        }
      ],
      "name": "ApprovalForAll",
      "type": "event"
    },
    {
      "anonymous": false,
      "inputs": [
        {
          "indexed": false,
          "internalType": "address",
          "name": "sender",
          "type": "address"
        },
        {
          "indexed": false,
          "internalType": "uint256",
          "name": "tokenId",
          "type": "uint256"
        }
      ],
      "name": "NewEpicNFTMinted",
      "type": "event"
    },
    {
      "anonymous": false,
      "inputs": [
        {
          "indexed": true,
          "internalType": "address",
          "name": "from",
          "type": "address"
        },
        {
          "indexed": true,
          "internalType": "address",
          "name": "to",
          "type": "address"
        },
        {
          "indexed": true,
          "internalType": "uint256",
          "name": "tokenId",
          "type": "uint256"
        }
      ],
      "name": "Transfer",
      "type": "event"
    },
    {
      "inputs": [
        {
          "internalType": "address",
          "name": "to",
          "type": "address"
        },
        {
          "internalType": "uint256",
          "name": "tokenId",
          "type": "uint256"
        }
      ],
      "name": "approve",
      "outputs": [],
      "stateMutability": "nonpayable",
      "type": "function"
    },
    {
      "inputs": [
        {
          "internalType": "address",
          "name": "owner",
          "type": "address"
        }
      ],
      "name": "balanceOf",
      "outputs": [
        {
          "internalType": "uint256",
          "name": "",
          "type": "uint256"
        }
      ],
      "stateMutability": "view",
      "type": "function"
    },
    {
      "inputs": [],
      "name": "count",
      "outputs": [
        {
          "internalType": "uint256",
          "name": "",
          "type": "uint256"
        }
      ],
      "stateMutability": "view",
      "type": "function"
    },
    {
      "inputs": [
        {
          "internalType": "uint256",
          "name": "tokenId",
          "type": "uint256"
        }
      ],
      "name": "getApproved",
      "outputs": [
        {
          "internalType": "address",
          "name": "",
          "type": "address"
        }
      ],
      "stateMutability": "view",
      "type": "function"
    },
    {
      "inputs": [
        {
          "internalType": "address",
          "name": "owner",
          "type": "address"
        },
        {
          "internalType": "address",
          "name": "operator",
          "type": "address"
        }
      ],
      "name": "isApprovedForAll",
      "outputs": [
        {
          "internalType": "bool",
          "name": "",
          "type": "bool"
        }
      ],
      "stateMutability": "view",
      "type": "function"
    },
    {
      "inputs": [],
      "name": "makeAnEpicNFT",
      "outputs": [],
      "stateMutability": "nonpayable",
      "type": "function"
    },
    {
      "inputs": [],
      "name": "name",
      "outputs": [
        {
          "internalType": "string",
          "name": "",
          "type": "string"
        }
      ],
      "stateMutability": "view",
      "type": "function"
    },
    {
      "inputs": [
        {
          "internalType": "uint256",
          "name": "tokenId",
          "type": "uint256"
        }
      ],
      "name": "ownerOf",
      "outputs": [
        {
          "internalType": "address",
          "name": "",
          "type": "address"
        }
      ],
      "stateMutability": "view",
      "type": "function"
    },
    {
      "inputs": [
        {
          "internalType": "uint256",
          "name": "tokenId",
          "type": "uint256"
        }
      ],
      "name": "pickRandomColor",
      "outputs": [
        {
          "internalType": "string",
          "name": "",
          "type": "string"
        }
      ],
      "stateMutability": "view",
      "type": "function"
    },
    {
      "inputs": [
        {
          "internalType": "uint256",
          "name": "tokenId",
          "type": "uint256"
        }
      ],
      "name": "pickRandomFirstWord",
      "outputs": [
        {
          "internalType": "string",
          "name": "",
          "type": "string"
        }
      ],
      "stateMutability": "view",
      "type": "function"
    },
    {
      "inputs": [
        {
          "internalType": "uint256",
          "name": "tokenId",
          "type": "uint256"
        }
      ],
      "name": "pickRandomSecondWord",
      "outputs": [
        {
          "internalType": "string",
          "name": "",
          "type": "string"
        }
      ],
      "stateMutability": "view",
      "type": "function"
    },
    {
      "inputs": [
        {
          "internalType": "uint256",
          "name": "tokenId",
          "type": "uint256"
        }
      ],
      "name": "pickRandomThirdWord",
      "outputs": [
        {
          "internalType": "string",
          "name": "",
          "type": "string"
        }
      ],
      "stateMutability": "view",
      "type": "function"
    },
    {
      "inputs": [
        {
          "internalType": "address",
          "name": "from",
          "type": "address"
        },
        {
          "internalType": "address",
          "name": "to",
          "type": "address"
        },
        {
          "internalType": "uint256",
          "name": "tokenId",
          "type": "uint256"
        }
      ],
      "name": "safeTransferFrom",
      "outputs": [],
      "stateMutability": "nonpayable",
      "type": "function"
    },
    {
      "inputs": [
        {
          "internalType": "address",
          "name": "from",
          "type": "address"
        },
        {
          "internalType": "address",
          "name": "to",
          "type": "address"
        },
        {
          "internalType": "uint256",
          "name": "tokenId",
          "type": "uint256"
        },
        {
          "internalType": "bytes",
          "name": "data",
          "type": "bytes"
        }
      ],
      "name": "safeTransferFrom",
      "outputs": [],
      "stateMutability": "nonpayable",
      "type": "function"
    },
    {
      "inputs": [
        {
          "internalType": "address",
          "name": "operator",
          "type": "address"
        },
        {
          "internalType": "bool",
          "name": "approved",
          "type": "bool"
        }
      ],
      "name": "setApprovalForAll",
      "outputs": [],
      "stateMutability": "nonpayable",
      "type": "function"
    },
    {
      "inputs": [
        {
          "internalType": "bytes4",
          "name": "interfaceId",
          "type": "bytes4"
        }
      ],
      "name": "supportsInterface",
      "outputs": [
        {
          "internalType": "bool",
          "name": "",
          "type": "bool"
        }
      ],
      "stateMutability": "view",
      "type": "function"
    },
    {
      "inputs": [],
      "name": "symbol",
      "outputs": [
        {
          "internalType": "string",
          "name": "",
          "type": "string"
        }
      ],
      "stateMutability": "view",
      "type": "function"
    },
    {
      "inputs": [
        {
          "internalType": "uint256",
          "name": "tokenId",
          "type": "uint256"
        }
      ],
      "name": "tokenURI",
      "outputs": [
        {
          "internalType": "string",
          "name": "",
          "type": "string"
        }
      ],
      "stateMutability": "view",
      "type": "function"
    },
    {
      "inputs": [
        {
          "internalType": "address",
          "name": "from",
          "type": "address"
        },
        {
          "internalType": "address",
          "name": "to",
          "type": "address"
        },
        {
          "internalType": "uint256",
          "name": "tokenId",
          "type": "uint256"
        }
      ],
      "name": "transferFrom",
      "outputs": [],
      "stateMutability": "nonpayable",
      "type": "function"
    }
  ],
  "bytecode": "0x608060405260405180610100016040528060d38152602001620048b760d39139600890805190602001906200003692919062000bdf565b506040518060800160405280605681526020016200498a60569139600990805190602001906200006892919062000bdf565b506040518060e001604052806040518060400160405280600981526020017f46616e746173746963000000000000000000000000000000000000000000000081525081526020016040518060400160405280600481526020017f457069630000000000000000000000000000000000000000000000000000000081525081526020016040518060400160405280600881526020017f5465727269626c6500000000000000000000000000000000000000000000000081525081526020016040518060400160405280600581526020017f4372617a7900000000000000000000000000000000000000000000000000000081525081526020016040518060400160405280600481526020017f57696c640000000000000000000000000000000000000000000000000000000081525081526020016040518060400160405280600a81526020017f54657272696679696e670000000000000000000000000000000000000000000081525081526020016040518060400160405280600681526020017f53706f6f6b790000000000000000000000000000000000000000000000000000815250815250600a9060076200022192919062000c70565b506040518061012001604052806040518060400160405280600781526020017f57617272696f720000000000000000000000000000000000000000000000000081525081526020016040518060400160405280600781526020017f50616c6164696e0000000000000000000000000000000000000000000000000081525081526020016040518060400160405280600681526020017f48756e746572000000000000000000000000000000000000000000000000000081525081526020016040518060400160405280600581526020017f526f67756500000000000000000000000000000000000000000000000000000081525081526020016040518060400160405280600681526020017f507269657374000000000000000000000000000000000000000000000000000081525081526020016040518060400160405280600681526020017f5368616d616e000000000000000000000000000000000000000000000000000081525081526020016040518060400160405280600481526020017f4d6167650000000000000000000000000000000000000000000000000000000081525081526020016040518060400160405280600781526020017f5761726c6f636b0000000000000000000000000000000000000000000000000081525081526020016040518060400160405280600581526020017f4472756964000000000000000000000000000000000000000000000000000000815250815250600b9060096200045192919062000cd7565b506040518061014001604052806040518060400160405280600381526020017f4f7263000000000000000000000000000000000000000000000000000000000081525081526020016040518060400160405280600381526020017f456c66000000000000000000000000000000000000000000000000000000000081525081526020016040518060400160405280600681526020017f556e64656164000000000000000000000000000000000000000000000000000081525081526020016040518060400160405280600681526020017f54617572656e000000000000000000000000000000000000000000000000000081525081526020016040518060400160405280600581526020017f54726f6c6c00000000000000000000000000000000000000000000000000000081525081526020016040518060400160405280600681526020017f476f626c696e000000000000000000000000000000000000000000000000000081525081526020016040518060400160405280600581526020017f48756d616e00000000000000000000000000000000000000000000000000000081525081526020016040518060400160405280600581526020017f447761726600000000000000000000000000000000000000000000000000000081525081526020016040518060400160405280600581526020017f476e6f6d6500000000000000000000000000000000000000000000000000000081525081526020016040518060400160405280600681526020017f576f7267656e0000000000000000000000000000000000000000000000000000815250815250600c90600a620006bc92919062000d3e565b50604051806101c001604052806040518060400160405280600781526020017f233237323732610000000000000000000000000000000000000000000000000081525081526020016040518060400160405280600781526020017f236566343434340000000000000000000000000000000000000000000000000081525081526020016040518060400160405280600781526020017f236662393233630000000000000000000000000000000000000000000000000081525081526020016040518060400160405280600781526020017f236661636331350000000000000000000000000000000000000000000000000081525081526020016040518060400160405280600781526020017f236133653633350000000000000000000000000000000000000000000000000081525081526020016040518060400160405280600781526020017f233461646538300000000000000000000000000000000000000000000000000081525081526020016040518060400160405280600781526020017f233264643462660000000000000000000000000000000000000000000000000081525081526020016040518060400160405280600781526020017f233232643365650000000000000000000000000000000000000000000000000081525081526020016040518060400160405280600781526020017f233630613566610000000000000000000000000000000000000000000000000081525081526020016040518060400160405280600781526020017f233831386366380000000000000000000000000000000000000000000000000081525081526020016040518060400160405280600781526020017f236330383466630000000000000000000000000000000000000000000000000081525081526020016040518060400160405280600781526020017f236538373966390000000000000000000000000000000000000000000000000081525081526020016040518060400160405280600781526020017f236634373262360000000000000000000000000000000000000000000000000081525081526020016040518060400160405280600781526020017f2366343366356500000000000000000000000000000000000000000000000000815250815250600d90600e62000a1392919062000da5565b5034801562000a2157600080fd5b506040518060400160405280600981526020017f5371756172654e465400000000000000000000000000000000000000000000008152506040518060400160405280600681526020017f5351554152450000000000000000000000000000000000000000000000000000815250816000908051906020019062000aa692919062000bdf565b50806001908051906020019062000abf92919062000bdf565b50505062000b0d6040518060400160405280601781526020017f54686973206973206d79206e667420636f6e747261637400000000000000000081525062000b1360201b620011e61760201c565b62000fc6565b62000bb38160405160240162000b2a919062000eda565b6040516020818303038152906040527f41304fac000000000000000000000000000000000000000000000000000000007bffffffffffffffffffffffffffffffffffffffffffffffffffffffff19166020820180517bffffffffffffffffffffffffffffffffffffffffffffffffffffffff838183161783525050505062000bb660201b60201c565b50565b60008151905060006a636f6e736f6c652e6c6f679050602083016000808483855afa5050505050565b82805462000bed9062000f50565b90600052602060002090601f01602090048101928262000c11576000855562000c5d565b82601f1062000c2c57805160ff191683800117855562000c5d565b8280016001018555821562000c5d579182015b8281111562000c5c57825182559160200191906001019062000c3f565b5b50905062000c6c919062000e0c565b5090565b82805482825590600052602060002090810192821562000cc4579160200282015b8281111562000cc357825182908051906020019062000cb292919062000bdf565b509160200191906001019062000c91565b5b50905062000cd3919062000e2b565b5090565b82805482825590600052602060002090810192821562000d2b579160200282015b8281111562000d2a57825182908051906020019062000d1992919062000bdf565b509160200191906001019062000cf8565b5b50905062000d3a919062000e2b565b5090565b82805482825590600052602060002090810192821562000d92579160200282015b8281111562000d9157825182908051906020019062000d8092919062000bdf565b509160200191906001019062000d5f565b5b50905062000da1919062000e2b565b5090565b82805482825590600052602060002090810192821562000df9579160200282015b8281111562000df857825182908051906020019062000de792919062000bdf565b509160200191906001019062000dc6565b5b50905062000e08919062000e2b565b5090565b5b8082111562000e2757600081600090555060010162000e0d565b5090565b5b8082111562000e4f576000818162000e45919062000e53565b5060010162000e2c565b5090565b50805462000e619062000f50565b6000825580601f1062000e75575062000e96565b601f01602090049060005260206000209081019062000e95919062000e0c565b5b50565b600062000ea68262000efe565b62000eb2818562000f09565b935062000ec481856020860162000f1a565b62000ecf8162000fb5565b840191505092915050565b6000602082019050818103600083015262000ef6818462000e99565b905092915050565b600081519050919050565b600082825260208201905092915050565b60005b8381101562000f3a57808201518184015260208101905062000f1d565b8381111562000f4a576000848401525b50505050565b6000600282049050600182168062000f6957607f821691505b6020821081141562000f805762000f7f62000f86565b5b50919050565b7f4e487b7100000000000000000000000000000000000000000000000000000000600052602260045260246000fd5b6000601f19601f8301169050919050565b6138e18062000fd66000396000f3fe608060405234801561001057600080fd5b50600436106101215760003560e01c80636352211e116100ad578063b88d4fde11610071578063b88d4fde14610340578063c575757a1461035c578063c87b56dd1461038c578063de9d132f146103bc578063e985e9c5146103c657610121565b80636352211e1461027657806370a08231146102a657806395d89b41146102d6578063a22cb465146102f4578063b187301f1461031057610121565b8063095ea7b3116100f4578063095ea7b3146101c257806323b872dd146101de5780632de38d68146101fa57806342842e0e1461022a578063514dc8c61461024657610121565b806301ffc9a71461012657806306661abd1461015657806306fdde0314610174578063081812fc14610192575b600080fd5b610140600480360381019061013b91906125d5565b6103f6565b60405161014d9190612cb2565b60405180910390f35b61015e6104d8565b60405161016b9190612ead565b60405180910390f35b61017c6104e9565b6040516101899190612ccd565b60405180910390f35b6101ac60048036038101906101a79190612627565b61057b565b6040516101b99190612c22565b60405180910390f35b6101dc60048036038101906101d79190612599565b6105c1565b005b6101f860048036038101906101f39190612493565b6106d9565b005b610214600480360381019061020f9190612627565b610739565b6040516102219190612ccd565b60405180910390f35b610244600480360381019061023f9190612493565b610857565b005b610260600480360381019061025b9190612627565b610877565b60405161026d9190612ccd565b60405180910390f35b610290600480360381019061028b9190612627565b610995565b60405161029d9190612c22565b60405180910390f35b6102c060048036038101906102bb919061242e565b610a47565b6040516102cd9190612ead565b60405180910390f35b6102de610aff565b6040516102eb9190612ccd565b60405180910390f35b61030e6004803603810190610309919061255d565b610b91565b005b61032a60048036038101906103259190612627565b610ba7565b6040516103379190612ccd565b60405180910390f35b61035a600480360381019061035591906124e2565b610cc5565b005b61037660048036038101906103719190612627565b610d27565b6040516103839190612ccd565b60405180910390f35b6103a660048036038101906103a19190612627565b610e45565b6040516103b39190612ccd565b60405180910390f35b6103c4610f58565b005b6103e060048036038101906103db9190612457565b611152565b6040516103ed9190612cb2565b60405180910390f35b60007f80ac58cd000000000000000000000000000000000000000000000000000000007bffffffffffffffffffffffffffffffffffffffffffffffffffffffff1916827bffffffffffffffffffffffffffffffffffffffffffffffffffffffff191614806104c157507f5b5e139f000000000000000000000000000000000000000000000000000000007bffffffffffffffffffffffffffffffffffffffffffffffffffffffff1916827bffffffffffffffffffffffffffffffffffffffffffffffffffffffff1916145b806104d157506104d08261127f565b5b9050919050565b60006104e460076112e9565b905090565b6060600080546104f890613141565b80601f016020809104026020016040519081016040528092919081815260200182805461052490613141565b80156105715780601f1061054657610100808354040283529160200191610571565b820191906000526020600020905b81548152906001019060200180831161055457829003601f168201915b5050505050905090565b6000610586826112f7565b6004600083815260200190815260200160002060009054906101000a900473ffffffffffffffffffffffffffffffffffffffff169050919050565b60006105cc82610995565b90508073ffffffffffffffffffffffffffffffffffffffff168373ffffffffffffffffffffffffffffffffffffffff16141561063d576040517f08c379a000000000000000000000000000000000000000000000000000000000815260040161063490612e6d565b60405180910390fd5b8073ffffffffffffffffffffffffffffffffffffffff1661065c611342565b73ffffffffffffffffffffffffffffffffffffffff16148061068b575061068a81610685611342565b611152565b5b6106ca576040517f08c379a00000000000000000000000000000000000000000000000000000000081526004016106c190612e0d565b60405180910390fd5b6106d4838361134a565b505050565b6106ea6106e4611342565b82611403565b610729576040517f08c379a000000000000000000000000000000000000000000000000000000000815260040161072090612e8d565b60405180910390fd5b610734838383611498565b505050565b6060600061076d610749846116ff565b6040516020016107599190612bbc565b6040516020818303038152906040526118ac565b9050600a805490508161078091906131ed565b9050600a81815481106107bc577f4e487b7100000000000000000000000000000000000000000000000000000000600052603260045260246000fd5b9060005260206000200180546107d190613141565b80601f01602080910402602001604051908101604052809291908181526020018280546107fd90613141565b801561084a5780601f1061081f5761010080835404028352916020019161084a565b820191906000526020600020905b81548152906001019060200180831161082d57829003601f168201915b5050505050915050919050565b61087283838360405180602001604052806000815250610cc5565b505050565b606060006108ab610887846116ff565b6040516020016108979190612c00565b6040516020818303038152906040526118ac565b9050600d80549050816108be91906131ed565b9050600d81815481106108fa577f4e487b7100000000000000000000000000000000000000000000000000000000600052603260045260246000fd5b90600052602060002001805461090f90613141565b80601f016020809104026020016040519081016040528092919081815260200182805461093b90613141565b80156109885780601f1061095d57610100808354040283529160200191610988565b820191906000526020600020905b81548152906001019060200180831161096b57829003601f168201915b5050505050915050919050565b6000806002600084815260200190815260200160002060009054906101000a900473ffffffffffffffffffffffffffffffffffffffff169050600073ffffffffffffffffffffffffffffffffffffffff168173ffffffffffffffffffffffffffffffffffffffff161415610a3e576040517f08c379a0000000000000000000000000000000000000000000000000000000008152600401610a3590612e4d565b60405180910390fd5b80915050919050565b60008073ffffffffffffffffffffffffffffffffffffffff168273ffffffffffffffffffffffffffffffffffffffff161415610ab8576040517f08c379a0000000000000000000000000000000000000000000000000000000008152600401610aaf90612dcd565b60405180910390fd5b600360008373ffffffffffffffffffffffffffffffffffffffff1673ffffffffffffffffffffffffffffffffffffffff168152602001908152602001600020549050919050565b606060018054610b0e90613141565b80601f0160208091040260200160405190810160405280929190818152602001828054610b3a90613141565b8015610b875780601f10610b5c57610100808354040283529160200191610b87565b820191906000526020600020905b815481529060010190602001808311610b6a57829003601f168201915b5050505050905090565b610ba3610b9c611342565b83836118df565b5050565b60606000610bdb610bb7846116ff565b604051602001610bc79190612b55565b6040516020818303038152906040526118ac565b9050600b8054905081610bee91906131ed565b9050600b8181548110610c2a577f4e487b7100000000000000000000000000000000000000000000000000000000600052603260045260246000fd5b906000526020600020018054610c3f90613141565b80601f0160208091040260200160405190810160405280929190818152602001828054610c6b90613141565b8015610cb85780601f10610c8d57610100808354040283529160200191610cb8565b820191906000526020600020905b815481529060010190602001808311610c9b57829003601f168201915b5050505050915050919050565b610cd6610cd0611342565b83611403565b610d15576040517f08c379a0000000000000000000000000000000000000000000000000000000008152600401610d0c90612e8d565b60405180910390fd5b610d2184848484611a4c565b50505050565b60606000610d5b610d37846116ff565b604051602001610d479190612b33565b6040516020818303038152906040526118ac565b9050600c8054905081610d6e91906131ed565b9050600c8181548110610daa577f4e487b7100000000000000000000000000000000000000000000000000000000600052603260045260246000fd5b906000526020600020018054610dbf90613141565b80601f0160208091040260200160405190810160405280929190818152602001828054610deb90613141565b8015610e385780601f10610e0d57610100808354040283529160200191610e38565b820191906000526020600020905b815481529060010190602001808311610e1b57829003601f168201915b5050505050915050919050565b6060610e50826112f7565b6000600660008481526020019081526020016000208054610e7090613141565b80601f0160208091040260200160405190810160405280929190818152602001828054610e9c90613141565b8015610ee95780601f10610ebe57610100808354040283529160200191610ee9565b820191906000526020600020905b815481529060010190602001808311610ecc57829003601f168201915b505050505090506000610efa611aa8565b9050600081511415610f10578192505050610f53565b600082511115610f45578082604051602001610f2d929190612a95565b60405160208183030381529060405292505050610f53565b610f4e84611abf565b925050505b919050565b6000610f6460076112e9565b90506000610f7182610739565b90506000610f7e83610ba7565b90506000610f8b84610d27565b90506000838383604051602001610fa493929190612ab9565b60405160208183030381529060405290506000610fc086610877565b90506000600882600985604051602001610fdd9493929190612aea565b6040516020818303038152906040529050600061102284610ffd84611b27565b60405160200161100e929190612b77565b604051602081830303815290604052611b27565b90506000816040516020016110379190612bde565b60405160208183030381529060405290506110866040518060400160405280601581526020017f0a2d2d2d2d2d2d2d2d2d2d2d2d2d2d2d2d2d2d2d2d00000000000000000000008152506111e6565b61108f816111e6565b6110cd6040518060400160405280601581526020017f2d2d2d2d2d2d2d2d2d2d2d2d2d2d2d2d2d2d2d2d0a00000000000000000000008152506111e6565b6110d7338a611ce5565b6110e18982611d03565b6110eb6007611d77565b61110e604051806060016040528060258152602001613847602591398a33611d8d565b7febb98688741ffa4c7589bf325de30cf7becb63de567842e1ccdb6cb949fdc82c338a60405161113f929190612c89565b60405180910390a1505050505050505050565b6000600560008473ffffffffffffffffffffffffffffffffffffffff1673ffffffffffffffffffffffffffffffffffffffff16815260200190815260200160002060008373ffffffffffffffffffffffffffffffffffffffff1673ffffffffffffffffffffffffffffffffffffffff16815260200190815260200160002060009054906101000a900460ff16905092915050565b61127c816040516024016111fa9190612ccd565b6040516020818303038152906040527f41304fac000000000000000000000000000000000000000000000000000000007bffffffffffffffffffffffffffffffffffffffffffffffffffffffff19166020820180517bffffffffffffffffffffffffffffffffffffffffffffffffffffffff8381831617835250505050611e2c565b50565b60007f01ffc9a7000000000000000000000000000000000000000000000000000000007bffffffffffffffffffffffffffffffffffffffffffffffffffffffff1916827bffffffffffffffffffffffffffffffffffffffffffffffffffffffff1916149050919050565b600081600001549050919050565b61130081611e55565b61133f576040517f08c379a000000000000000000000000000000000000000000000000000000000815260040161133690612e4d565b60405180910390fd5b50565b600033905090565b816004600083815260200190815260200160002060006101000a81548173ffffffffffffffffffffffffffffffffffffffff021916908373ffffffffffffffffffffffffffffffffffffffff160217905550808273ffffffffffffffffffffffffffffffffffffffff166113bd83610995565b73ffffffffffffffffffffffffffffffffffffffff167f8c5be1e5ebec7d5bd14f71427d1e84f3dd0314c0f7b2291e5b200ac8c7c3b92560405160405180910390a45050565b60008061140f83610995565b90508073ffffffffffffffffffffffffffffffffffffffff168473ffffffffffffffffffffffffffffffffffffffff16148061145157506114508185611152565b5b8061148f57508373ffffffffffffffffffffffffffffffffffffffff166114778461057b565b73ffffffffffffffffffffffffffffffffffffffff16145b91505092915050565b8273ffffffffffffffffffffffffffffffffffffffff166114b882610995565b73ffffffffffffffffffffffffffffffffffffffff161461150e576040517f08c379a000000000000000000000000000000000000000000000000000000000815260040161150590612d4d565b60405180910390fd5b600073ffffffffffffffffffffffffffffffffffffffff168273ffffffffffffffffffffffffffffffffffffffff16141561157e576040517f08c379a000000000000000000000000000000000000000000000000000000000815260040161157590612d8d565b60405180910390fd5b611589838383611ec1565b61159460008261134a565b6001600360008573ffffffffffffffffffffffffffffffffffffffff1673ffffffffffffffffffffffffffffffffffffffff16815260200190815260200160002060008282546115e49190613057565b925050819055506001600360008473ffffffffffffffffffffffffffffffffffffffff1673ffffffffffffffffffffffffffffffffffffffff168152602001908152602001600020600082825461163b9190612f76565b92505081905550816002600083815260200190815260200160002060006101000a81548173ffffffffffffffffffffffffffffffffffffffff021916908373ffffffffffffffffffffffffffffffffffffffff160217905550808273ffffffffffffffffffffffffffffffffffffffff168473ffffffffffffffffffffffffffffffffffffffff167fddf252ad1be2c89b69c2b068fc378daa952ba7f163c4a11628f55a4df523b3ef60405160405180910390a46116fa838383611ec6565b505050565b60606000821415611747576040518060400160405280600181526020017f300000000000000000000000000000000000000000000000000000000000000081525090506118a7565b600082905060005b60008214611779578080611762906131a4565b915050600a826117729190612fcc565b915061174f565b60008167ffffffffffffffff8111156117bb577f4e487b7100000000000000000000000000000000000000000000000000000000600052604160045260246000fd5b6040519080825280601f01601f1916602001820160405280156117ed5781602001600182028036833780820191505090505b5090505b600085146118a0576001826118069190613057565b9150600a8561181591906131ed565b60306118219190612f76565b60f81b81838151811061185d577f4e487b7100000000000000000000000000000000000000000000000000000000600052603260045260246000fd5b60200101907effffffffffffffffffffffffffffffffffffffffffffffffffffffffffffff1916908160001a905350600a856118999190612fcc565b94506117f1565b8093505050505b919050565b6000816040516020016118bf9190612a7e565b6040516020818303038152906040528051906020012060001c9050919050565b8173ffffffffffffffffffffffffffffffffffffffff168373ffffffffffffffffffffffffffffffffffffffff16141561194e576040517f08c379a000000000000000000000000000000000000000000000000000000000815260040161194590612dad565b60405180910390fd5b80600560008573ffffffffffffffffffffffffffffffffffffffff1673ffffffffffffffffffffffffffffffffffffffff16815260200190815260200160002060008473ffffffffffffffffffffffffffffffffffffffff1673ffffffffffffffffffffffffffffffffffffffff16815260200190815260200160002060006101000a81548160ff0219169083151502179055508173ffffffffffffffffffffffffffffffffffffffff168373ffffffffffffffffffffffffffffffffffffffff167f17307eab39ab6107e8899845ad3d59bd9653f200f220920489ca2b5937696c3183604051611a3f9190612cb2565b60405180910390a3505050565b611a57848484611498565b611a6384848484611ecb565b611aa2576040517f08c379a0000000000000000000000000000000000000000000000000000000008152600401611a9990612d2d565b60405180910390fd5b50505050565b606060405180602001604052806000815250905090565b6060611aca826112f7565b6000611ad4611aa8565b90506000815111611af45760405180602001604052806000815250611b1f565b80611afe846116ff565b604051602001611b0f929190612a95565b6040516020818303038152906040525b915050919050565b60606000825190506000811415611b505760405180602001604052806000815250915050611ce0565b60006003600283611b619190612f76565b611b6b9190612fcc565b6004611b779190612ffd565b90506000602082611b889190612f76565b67ffffffffffffffff811115611bc7577f4e487b7100000000000000000000000000000000000000000000000000000000600052604160045260246000fd5b6040519080825280601f01601f191660200182016040528015611bf95781602001600182028036833780820191505090505b509050600060405180606001604052806040815260200161386c604091399050600181016020830160005b86811015611c9d5760038101905062ffffff818a015116603f8160121c168401518060081b905060ff603f83600c1c1686015116810190508060081b905060ff603f8360061c1686015116810190508060081b905060ff603f831686015116810190508060e01b90508084526004840193505050611c24565b506003860660018114611cb75760028114611cc757611cd2565b613d3d60f01b6002830352611cd2565b603d60f81b60018303525b508484525050819450505050505b919050565b611cff828260405180602001604052806000815250612062565b5050565b611d0c82611e55565b611d4b576040517f08c379a0000000000000000000000000000000000000000000000000000000008152600401611d4290612ded565b60405180910390fd5b80600660008481526020019081526020016000209080519060200190611d729291906122ba565b505050565b6001816000016000828254019250508190555050565b611e27838383604051602401611da593929190612cef565b6040516020818303038152906040527fe3849f79000000000000000000000000000000000000000000000000000000007bffffffffffffffffffffffffffffffffffffffffffffffffffffffff19166020820180517bffffffffffffffffffffffffffffffffffffffffffffffffffffffff8381831617835250505050611e2c565b505050565b60008151905060006a636f6e736f6c652e6c6f679050602083016000808483855afa5050505050565b60008073ffffffffffffffffffffffffffffffffffffffff166002600084815260200190815260200160002060009054906101000a900473ffffffffffffffffffffffffffffffffffffffff1673ffffffffffffffffffffffffffffffffffffffff1614159050919050565b505050565b505050565b6000611eec8473ffffffffffffffffffffffffffffffffffffffff166120bd565b15612055578373ffffffffffffffffffffffffffffffffffffffff1663150b7a02611f15611342565b8786866040518563ffffffff1660e01b8152600401611f379493929190612c3d565b602060405180830381600087803b158015611f5157600080fd5b505af1925050508015611f8257506040513d601f19601f82011682018060405250810190611f7f91906125fe565b60015b612005573d8060008114611fb2576040519150601f19603f3d011682016040523d82523d6000602084013e611fb7565b606091505b50600081511415611ffd576040517f08c379a0000000000000000000000000000000000000000000000000000000008152600401611ff490612d2d565b60405180910390fd5b805181602001fd5b63150b7a0260e01b7bffffffffffffffffffffffffffffffffffffffffffffffffffffffff1916817bffffffffffffffffffffffffffffffffffffffffffffffffffffffff19161491505061205a565b600190505b949350505050565b61206c83836120e0565b6120796000848484611ecb565b6120b8576040517f08c379a00000000000000000000000000000000000000000000000000000000081526004016120af90612d2d565b60405180910390fd5b505050565b6000808273ffffffffffffffffffffffffffffffffffffffff163b119050919050565b600073ffffffffffffffffffffffffffffffffffffffff168273ffffffffffffffffffffffffffffffffffffffff161415612150576040517f08c379a000000000000000000000000000000000000000000000000000000000815260040161214790612e2d565b60405180910390fd5b61215981611e55565b15612199576040517f08c379a000000000000000000000000000000000000000000000000000000000815260040161219090612d6d565b60405180910390fd5b6121a560008383611ec1565b6001600360008473ffffffffffffffffffffffffffffffffffffffff1673ffffffffffffffffffffffffffffffffffffffff16815260200190815260200160002060008282546121f59190612f76565b92505081905550816002600083815260200190815260200160002060006101000a81548173ffffffffffffffffffffffffffffffffffffffff021916908373ffffffffffffffffffffffffffffffffffffffff160217905550808273ffffffffffffffffffffffffffffffffffffffff16600073ffffffffffffffffffffffffffffffffffffffff167fddf252ad1be2c89b69c2b068fc378daa952ba7f163c4a11628f55a4df523b3ef60405160405180910390a46122b660008383611ec6565b5050565b8280546122c690613141565b90600052602060002090601f0160209004810192826122e8576000855561232f565b82601f1061230157805160ff191683800117855561232f565b8280016001018555821561232f579182015b8281111561232e578251825591602001919060010190612313565b5b50905061233c9190612340565b5090565b5b80821115612359576000816000905550600101612341565b5090565b600061237061236b84612eed565b612ec8565b90508281526020810184848401111561238857600080fd5b6123938482856130ff565b509392505050565b6000813590506123aa816137ea565b92915050565b6000813590506123bf81613801565b92915050565b6000813590506123d481613818565b92915050565b6000815190506123e981613818565b92915050565b600082601f83011261240057600080fd5b813561241084826020860161235d565b91505092915050565b6000813590506124288161382f565b92915050565b60006020828403121561244057600080fd5b600061244e8482850161239b565b91505092915050565b6000806040838503121561246a57600080fd5b60006124788582860161239b565b92505060206124898582860161239b565b9150509250929050565b6000806000606084860312156124a857600080fd5b60006124b68682870161239b565b93505060206124c78682870161239b565b92505060406124d886828701612419565b9150509250925092565b600080600080608085870312156124f857600080fd5b60006125068782880161239b565b94505060206125178782880161239b565b935050604061252887828801612419565b925050606085013567ffffffffffffffff81111561254557600080fd5b612551878288016123ef565b91505092959194509250565b6000806040838503121561257057600080fd5b600061257e8582860161239b565b925050602061258f858286016123b0565b9150509250929050565b600080604083850312156125ac57600080fd5b60006125ba8582860161239b565b92505060206125cb85828601612419565b9150509250929050565b6000602082840312156125e757600080fd5b60006125f5848285016123c5565b91505092915050565b60006020828403121561261057600080fd5b600061261e848285016123da565b91505092915050565b60006020828403121561263957600080fd5b600061264784828501612419565b91505092915050565b6126598161308b565b82525050565b6126688161309d565b82525050565b600061267982612f33565b6126838185612f49565b935061269381856020860161310e565b61269c816132da565b840191505092915050565b60006126b282612f3e565b6126bc8185612f5a565b93506126cc81856020860161310e565b6126d5816132da565b840191505092915050565b60006126eb82612f3e565b6126f58185612f6b565b935061270581856020860161310e565b80840191505092915050565b6000815461271e81613141565b6127288186612f6b565b94506001821660008114612743576001811461275457612787565b60ff19831686528186019350612787565b61275d85612f1e565b60005b8381101561277f57815481890152600182019150602081019050612760565b838801955050505b50505092915050565b600061279d603283612f5a565b91506127a8826132eb565b604082019050919050565b60006127c0602583612f5a565b91506127cb8261333a565b604082019050919050565b60006127e3601c83612f5a565b91506127ee82613389565b602082019050919050565b6000612806600a83612f6b565b9150612811826133b2565b600a82019050919050565b6000612829602483612f5a565b9150612834826133db565b604082019050919050565b600061284c601983612f5a565b91506128578261342a565b602082019050919050565b600061286f606383612f6b565b915061287a82613453565b606382019050919050565b6000612892600b83612f6b565b915061289d826134ee565b600b82019050919050565b60006128b5600d83612f6b565b91506128c082613517565b600d82019050919050565b60006128d8602983612f5a565b91506128e382613540565b604082019050919050565b60006128fb602e83612f5a565b91506129068261358f565b604082019050919050565b600061291e600283612f6b565b9150612929826135de565b600282019050919050565b6000612941603e83612f5a565b915061294c82613607565b604082019050919050565b6000612964602083612f5a565b915061296f82613656565b602082019050919050565b6000612987600a83612f6b565b91506129928261367f565b600a82019050919050565b60006129aa601883612f5a565b91506129b5826136a8565b602082019050919050565b60006129cd602183612f5a565b91506129d8826136d1565b604082019050919050565b60006129f0600a83612f6b565b91506129fb82613720565b600a82019050919050565b6000612a13601d83612f6b565b9150612a1e82613749565b601d82019050919050565b6000612a36600583612f6b565b9150612a4182613772565b600582019050919050565b6000612a59602e83612f5a565b9150612a648261379b565b604082019050919050565b612a78816130f5565b82525050565b6000612a8a82846126e0565b915081905092915050565b6000612aa182856126e0565b9150612aad82846126e0565b91508190509392505050565b6000612ac582866126e0565b9150612ad182856126e0565b9150612add82846126e0565b9150819050949350505050565b6000612af68287612711565b9150612b0282866126e0565b9150612b0e8285612711565b9150612b1a82846126e0565b9150612b25826128a8565b915081905095945050505050565b6000612b3e826127f9565b9150612b4a82846126e0565b915081905092915050565b6000612b6082612885565b9150612b6c82846126e0565b915081905092915050565b6000612b828261297a565b9150612b8e82856126e0565b9150612b9982612862565b9150612ba582846126e0565b9150612bb082612911565b91508190509392505050565b6000612bc7826129e3565b9150612bd382846126e0565b915081905092915050565b6000612be982612a06565b9150612bf582846126e0565b915081905092915050565b6000612c0b82612a29565b9150612c1782846126e0565b915081905092915050565b6000602082019050612c376000830184612650565b92915050565b6000608082019050612c526000830187612650565b612c5f6020830186612650565b612c6c6040830185612a6f565b8181036060830152612c7e818461266e565b905095945050505050565b6000604082019050612c9e6000830185612650565b612cab6020830184612a6f565b9392505050565b6000602082019050612cc7600083018461265f565b92915050565b60006020820190508181036000830152612ce781846126a7565b905092915050565b60006060820190508181036000830152612d0981866126a7565b9050612d186020830185612a6f565b612d256040830184612650565b949350505050565b60006020820190508181036000830152612d4681612790565b9050919050565b60006020820190508181036000830152612d66816127b3565b9050919050565b60006020820190508181036000830152612d86816127d6565b9050919050565b60006020820190508181036000830152612da68161281c565b9050919050565b60006020820190508181036000830152612dc68161283f565b9050919050565b60006020820190508181036000830152612de6816128cb565b9050919050565b60006020820190508181036000830152612e06816128ee565b9050919050565b60006020820190508181036000830152612e2681612934565b9050919050565b60006020820190508181036000830152612e4681612957565b9050919050565b60006020820190508181036000830152612e668161299d565b9050919050565b60006020820190508181036000830152612e86816129c0565b9050919050565b60006020820190508181036000830152612ea681612a4c565b9050919050565b6000602082019050612ec26000830184612a6f565b92915050565b6000612ed2612ee3565b9050612ede8282613173565b919050565b6000604051905090565b600067ffffffffffffffff821115612f0857612f076132ab565b5b612f11826132da565b9050602081019050919050565b60008190508160005260206000209050919050565b600081519050919050565b600081519050919050565b600082825260208201905092915050565b600082825260208201905092915050565b600081905092915050565b6000612f81826130f5565b9150612f8c836130f5565b9250827fffffffffffffffffffffffffffffffffffffffffffffffffffffffffffffffff03821115612fc157612fc061321e565b5b828201905092915050565b6000612fd7826130f5565b9150612fe2836130f5565b925082612ff257612ff161324d565b5b828204905092915050565b6000613008826130f5565b9150613013836130f5565b9250817fffffffffffffffffffffffffffffffffffffffffffffffffffffffffffffffff048311821515161561304c5761304b61321e565b5b828202905092915050565b6000613062826130f5565b915061306d836130f5565b9250828210156130805761307f61321e565b5b828203905092915050565b6000613096826130d5565b9050919050565b60008115159050919050565b60007fffffffff0000000000000000000000000000000000000000000000000000000082169050919050565b600073ffffffffffffffffffffffffffffffffffffffff82169050919050565b6000819050919050565b82818337600083830152505050565b60005b8381101561312c578082015181840152602081019050613111565b8381111561313b576000848401525b50505050565b6000600282049050600182168061315957607f821691505b6020821081141561316d5761316c61327c565b5b50919050565b61317c826132da565b810181811067ffffffffffffffff8211171561319b5761319a6132ab565b5b80604052505050565b60006131af826130f5565b91507fffffffffffffffffffffffffffffffffffffffffffffffffffffffffffffffff8214156131e2576131e161321e565b5b600182019050919050565b60006131f8826130f5565b9150613203836130f5565b9250826132135761321261324d565b5b828206905092915050565b7f4e487b7100000000000000000000000000000000000000000000000000000000600052601160045260246000fd5b7f4e487b7100000000000000000000000000000000000000000000000000000000600052601260045260246000fd5b7f4e487b7100000000000000000000000000000000000000000000000000000000600052602260045260246000fd5b7f4e487b7100000000000000000000000000000000000000000000000000000000600052604160045260246000fd5b6000601f19601f8301169050919050565b7f4552433732313a207472616e7366657220746f206e6f6e20455243373231526560008201527f63656976657220696d706c656d656e7465720000000000000000000000000000602082015250565b7f4552433732313a207472616e736665722066726f6d20696e636f72726563742060008201527f6f776e6572000000000000000000000000000000000000000000000000000000602082015250565b7f4552433732313a20746f6b656e20616c7265616479206d696e74656400000000600082015250565b7f54484952445f574f524400000000000000000000000000000000000000000000600082015250565b7f4552433732313a207472616e7366657220746f20746865207a65726f2061646460008201527f7265737300000000000000000000000000000000000000000000000000000000602082015250565b7f4552433732313a20617070726f766520746f2063616c6c657200000000000000600082015250565b7f222c20226465736372697074696f6e223a20224120686967686c79206163636c60008201527f61696d656420636f6c6c656374696f6e206f6620737175617265732e222c202260208201527f696d616765223a2022646174613a696d6167652f7376672b786d6c3b6261736560408201527f36342c0000000000000000000000000000000000000000000000000000000000606082015250565b7f5345434f4e445f574f5244000000000000000000000000000000000000000000600082015250565b7f3c2f746578743e3c2f7376673e00000000000000000000000000000000000000600082015250565b7f4552433732313a2061646472657373207a65726f206973206e6f74206120766160008201527f6c6964206f776e65720000000000000000000000000000000000000000000000602082015250565b7f45524337323155524953746f726167653a2055524920736574206f66206e6f6e60008201527f6578697374656e7420746f6b656e000000000000000000000000000000000000602082015250565b7f227d000000000000000000000000000000000000000000000000000000000000600082015250565b7f4552433732313a20617070726f76652063616c6c6572206973206e6f7420746f60008201527f6b656e206f776e6572206e6f7220617070726f76656420666f7220616c6c0000602082015250565b7f4552433732313a206d696e7420746f20746865207a65726f2061646472657373600082015250565b7f7b226e616d65223a202200000000000000000000000000000000000000000000600082015250565b7f4552433732313a20696e76616c696420746f6b656e2049440000000000000000600082015250565b7f4552433732313a20617070726f76616c20746f2063757272656e74206f776e6560008201527f7200000000000000000000000000000000000000000000000000000000000000602082015250565b7f46495253545f574f524400000000000000000000000000000000000000000000600082015250565b7f646174613a6170706c69636174696f6e2f6a736f6e3b6261736536342c000000600082015250565b7f434f4c4f52000000000000000000000000000000000000000000000000000000600082015250565b7f4552433732313a2063616c6c6572206973206e6f7420746f6b656e206f776e6560008201527f72206e6f7220617070726f766564000000000000000000000000000000000000602082015250565b6137f38161308b565b81146137fe57600080fd5b50565b61380a8161309d565b811461381557600080fd5b50565b613821816130a9565b811461382c57600080fd5b50565b613838816130f5565b811461384357600080fd5b5056fe416e204e465420772f20494420257320686173206265656e206d696e74656420746f2025734142434445464748494a4b4c4d4e4f505152535455565758595a6162636465666768696a6b6c6d6e6f707172737475767778797a303132333435363738392b2fa264697066735822122016cc779ec39e165c2a45a8ef35c1760cfbf5c12269c455b92afb25ff25b9b1db64736f6c634300080100333c73766720786d6c6e733d27687474703a2f2f7777772e77332e6f72672f323030302f73766727207072657365727665417370656374526174696f3d27784d696e594d696e206d656574272076696577426f783d273020302033353020333530273e3c7374796c653e2e62617365207b2066696c6c3a2077686974653b20666f6e742d66616d696c793a2073657269663b20666f6e742d73697a653a20323470783b207d3c2f7374796c653e3c726563742077696474683d273130302527206865696768743d2731303025272066696c6c3d27272f3e3c7465787420783d273530252720793d273530252720636c6173733d27626173652720646f6d696e616e742d626173656c696e653d276d6964646c652720746578742d616e63686f723d276d6964646c65273e",
  "linkReferences": {},
  "deployedLinkReferences": {}
}